{"contracts/Tweet.sol":{"Tweet":{"abi":[{"anonymous":false,"inputs":[{"indexed":false,"internalType":"uint256","name":"tweetId","type":"uint256"}],"name":"DeleteTweetEvent","type":"event"},{"anonymous":false,"inputs":[{"indexed":false,"internalType":"string","name":"tweetMessage","type":"string"},{"indexed":false,"internalType":"uint256","name":"tweetId","type":"uint256"}],"name":"EditTweetEvent","type":"event"},{"anonymous":false,"inputs":[{"indexed":false,"internalType":"string","name":"tweetMessage","type":"string"},{"indexed":false,"internalType":"address","name":"tweetOwner","type":"address"},{"indexed":false,"internalType":"uint256","name":"tweetTime","type":"uint256"},{"indexed":false,"internalType":"uint256","name":"tweetId","type":"uint256"}],"name":"NewTweetEvent","type":"event"},{"anonymous":false,"inputs":[{"indexed":true,"internalType":"address","name":"previousOwner","type":"address"},{"indexed":true,"internalType":"address","name":"newOwner","type":"address"}],"name":"OwnershipTransferred","type":"event"},{"inputs":[{"internalType":"uint256","name":"id","type":"uint256"}],"name":"DeleteTweet","outputs":[],"stateMutability":"nonpayable","type":"function"},{"inputs":[{"internalType":"uint256","name":"id","type":"uint256"},{"internalType":"string","name":"newMessage","type":"string"}],"name":"EditTweet","outputs":[],"stateMutability":"nonpayable","type":"function"},{"inputs":[{"internalType":"uint256","name":"id","type":"uint256"}],"name":"GetTweetEdited","outputs":[{"internalType":"bool","name":"","type":"bool"}],"stateMutability":"view","type":"function"},{"inputs":[],"name":"GetTweetLength","outputs":[{"internalType":"uint256","name":"","type":"uint256"}],"stateMutability":"view","type":"function"},{"inputs":[{"internalType":"uint256","name":"id","type":"uint256"}],"name":"GetTweetMessage","outputs":[{"internalType":"string","name":"","type":"string"}],"stateMutability":"view","type":"function"},{"inputs":[{"internalType":"uint256","name":"id","type":"uint256"}],"name":"GetTweetOwner","outputs":[{"internalType":"address","name":"","type":"address"}],"stateMutability":"view","type":"function"},{"inputs":[{"internalType":"uint256","name":"id","type":"uint256"}],"name":"GetTweetTime","outputs":[{"internalType":"uint256","name":"","type":"uint256"}],"stateMutability":"view","type":"function"},{"inputs":[{"internalType":"uint256","name":"id","type":"uint256"}],"name":"GetTweetVisibility","outputs":[{"internalType":"bool","name":"","type":"bool"}],"stateMutability":"view","type":"function"},{"inputs":[],"name":"GetTweets","outputs":[{"components":[{"internalType":"string","name":"TweetMessage","type":"string"},{"internalType":"address","name":"TweetOwner","type":"address"},{"internalType":"uint32","name":"TweetTime","type":"uint32"},{"internalType":"bool","name":"visibility","type":"bool"},{"internalType":"bool","name":"edited","type":"bool"}],"internalType":"struct Tweet.TweetStruct[]","name":"","type":"tuple[]"}],"stateMutability":"view","type":"function"},{"inputs":[{"internalType":"string","name":"message","type":"string"},{"internalType":"uint32","name":"time","type":"uint32"}],"name":"PostTweet","outputs":[],"stateMutability":"nonpayable","type":"function"},{"inputs":[],"name":"owner","outputs":[{"internalType":"address","name":"","type":"address"}],"stateMutability":"view","type":"function"},{"inputs":[],"name":"renounceOwnership","outputs":[],"stateMutability":"nonpayable","type":"function"},{"inputs":[{"internalType":"address","name":"newOwner","type":"address"}],"name":"transferOwnership","outputs":[],"stateMutability":"nonpayable","type":"function"}],"evm":{"bytecode":{"linkReferences":{},"object":"608060405234801561001057600080fd5b506100203361002560201b60201c565b6100e9565b60008060009054906101000a900473ffffffffffffffffffffffffffffffffffffffff169050816000806101000a81548173ffffffffffffffffffffffffffffffffffffffff021916908373ffffffffffffffffffffffffffffffffffffffff1602179055508173ffffffffffffffffffffffffffffffffffffffff168173ffffffffffffffffffffffffffffffffffffffff167f8be0079c531659141344cd1fd0a4f28419497f9722a3daafe3b4186f6b6457e060405160405180910390a35050565b611ab9806100f86000396000f3fe608060405234801561001057600080fd5b50600436106100cf5760003560e01c8063b9c197261161008c578063d901cbe311610066578063d901cbe3146101fe578063e749e0221461022e578063f1dcd93f1461025e578063f2fde38b1461027c576100cf565b8063b9c1972614610180578063bc820c10146101b0578063c5ddac73146101ce576100cf565b80630bbffe24146100d4578063171abca514610104578063715018a614610120578063735c514a1461012a5780638da5cb5b146101465780639c0cce8d14610164575b600080fd5b6100ee60048036038101906100e99190610e14565b610298565b6040516100fb9190610e5c565b60405180910390f35b61011e60048036038101906101199190610fbd565b6102d4565b005b610128610505565b005b610144600480360381019061013f9190611055565b610519565b005b61014e610781565b60405161015b91906110f2565b60405180910390f35b61017e60048036038101906101799190610e14565b6107aa565b005b61019a60048036038101906101959190610e14565b6108d5565b6040516101a7919061111c565b60405180910390f35b6101b861091a565b6040516101c5919061111c565b60405180910390f35b6101e860048036038101906101e39190610e14565b610927565b6040516101f59190610e5c565b60405180910390f35b61021860048036038101906102139190610e14565b610963565b60405161022591906110f2565b60405180910390f35b61024860048036038101906102439190610e14565b6109b2565b60405161025591906111b6565b60405180910390f35b610266610a69565b6040516102739190611387565b60405180910390f35b610296600480360381019061029191906113d5565b610c0c565b005b6000600182815481106102ae576102ad611402565b5b906000526020600020906002020160010160189054906101000a900460ff169050919050565b600182815481106102e8576102e7611402565b5b906000526020600020906002020160010160009054906101000a900473ffffffffffffffffffffffffffffffffffffffff1673ffffffffffffffffffffffffffffffffffffffff163373ffffffffffffffffffffffffffffffffffffffff1614610387576040517f08c379a000000000000000000000000000000000000000000000000000000000815260040161037e9061147d565b60405180910390fd5b604051602001610396906114ce565b60405160208183030381529060405280519060200120816040516020016103bd9190611514565b6040516020818303038152906040528051906020012003610413576040517f08c379a000000000000000000000000000000000000000000000000000000000815260040161040a90611577565b60405180910390fd5b608c81511115610458576040517f08c379a000000000000000000000000000000000000000000000000000000000815260040161044f906115e3565b60405180910390fd5b806001838154811061046d5761046c611402565b5b9060005260206000209060020201600001908161048a919061180f565b5060018083815481106104a05761049f611402565b5b906000526020600020906002020160010160196101000a81548160ff0219169083151502179055507fb749870735375200743139840be8c8cdb105748a51d782f8373b033d04431fd381836040516104f99291906118e1565b60405180910390a15050565b61050d610c8f565b6105176000610d06565b565b604051602001610528906114ce565b604051602081830303815290604052805190602001208260405160200161054f9190611514565b60405160208183030381529060405280519060200120036105a5576040517f08c379a000000000000000000000000000000000000000000000000000000000815260040161059c90611577565b60405180910390fd5b608c825111156105ea576040517f08c379a00000000000000000000000000000000000000000000000000000000081526004016105e1906115e3565b60405180910390fd5b600033905060016040518060a001604052808581526020018373ffffffffffffffffffffffffffffffffffffffff1681526020018463ffffffff1681526020016001151581526020016000151581525090806001815401808255809150506001900390600052602060002090600202016000909190919091506000820151816000019081610678919061180f565b5060208201518160010160006101000a81548173ffffffffffffffffffffffffffffffffffffffff021916908373ffffffffffffffffffffffffffffffffffffffff16021790555060408201518160010160146101000a81548163ffffffff021916908363ffffffff16021790555060608201518160010160186101000a81548160ff02191690831515021790555060808201518160010160196101000a81548160ff021916908315150217905550505060006001808054905061073c9190611940565b90507fe636b805e315e6c223e32c1c45c96245de752bcc849619c1e3012449df54ece08483858460405161077394939291906119a5565b60405180910390a150505050565b60008060009054906101000a900473ffffffffffffffffffffffffffffffffffffffff16905090565b600181815481106107be576107bd611402565b5b906000526020600020906002020160010160009054906101000a900473ffffffffffffffffffffffffffffffffffffffff1673ffffffffffffffffffffffffffffffffffffffff163373ffffffffffffffffffffffffffffffffffffffff161461085d576040517f08c379a00000000000000000000000000000000000000000000000000000000081526004016108549061147d565b60405180910390fd5b60006001828154811061087357610872611402565b5b906000526020600020906002020160010160186101000a81548160ff0219169083151502179055507f805cd43a167357339f81950be6c6b1dc85ab6b73e8b942d73d6bc0d63a85cf98816040516108ca919061111c565b60405180910390a150565b6000600182815481106108eb576108ea611402565b5b906000526020600020906002020160010160149054906101000a900463ffffffff1663ffffffff169050919050565b6000600180549050905090565b60006001828154811061093d5761093c611402565b5b906000526020600020906002020160010160199054906101000a900460ff169050919050565b60006001828154811061097957610978611402565b5b906000526020600020906002020160010160009054906101000a900473ffffffffffffffffffffffffffffffffffffffff169050919050565b6060600182815481106109c8576109c7611402565b5b906000526020600020906002020160000180546109e490611632565b80601f0160208091040260200160405190810160405280929190818152602001828054610a1090611632565b8015610a5d5780601f10610a3257610100808354040283529160200191610a5d565b820191906000526020600020905b815481529060010190602001808311610a4057829003601f168201915b50505050509050919050565b60606001805480602002602001604051908101604052809291908181526020016000905b82821015610c0357838290600052602060002090600202016040518060a0016040529081600082018054610ac090611632565b80601f0160208091040260200160405190810160405280929190818152602001828054610aec90611632565b8015610b395780601f10610b0e57610100808354040283529160200191610b39565b820191906000526020600020905b815481529060010190602001808311610b1c57829003601f168201915b505050505081526020016001820160009054906101000a900473ffffffffffffffffffffffffffffffffffffffff1673ffffffffffffffffffffffffffffffffffffffff1673ffffffffffffffffffffffffffffffffffffffff1681526020016001820160149054906101000a900463ffffffff1663ffffffff1663ffffffff1681526020016001820160189054906101000a900460ff161515151581526020016001820160199054906101000a900460ff16151515158152505081526020019060010190610a8d565b50505050905090565b610c14610c8f565b600073ffffffffffffffffffffffffffffffffffffffff168173ffffffffffffffffffffffffffffffffffffffff1603610c83576040517f08c379a0000000000000000000000000000000000000000000000000000000008152600401610c7a90611a63565b60405180910390fd5b610c8c81610d06565b50565b3373ffffffffffffffffffffffffffffffffffffffff16610cae610781565b73ffffffffffffffffffffffffffffffffffffffff1614610d04576040517f08c379a0000000000000000000000000000000000000000000000000000000008152600401610cfb9061147d565b60405180910390fd5b565b60008060009054906101000a900473ffffffffffffffffffffffffffffffffffffffff169050816000806101000a81548173ffffffffffffffffffffffffffffffffffffffff021916908373ffffffffffffffffffffffffffffffffffffffff1602179055508173ffffffffffffffffffffffffffffffffffffffff168173ffffffffffffffffffffffffffffffffffffffff167f8be0079c531659141344cd1fd0a4f28419497f9722a3daafe3b4186f6b6457e060405160405180910390a35050565b6000604051905090565b600080fd5b600080fd5b6000819050919050565b610df181610dde565b8114610dfc57600080fd5b50565b600081359050610e0e81610de8565b92915050565b600060208284031215610e2a57610e29610dd4565b5b6000610e3884828501610dff565b91505092915050565b60008115159050919050565b610e5681610e41565b82525050565b6000602082019050610e716000830184610e4d565b92915050565b600080fd5b600080fd5b6000601f19601f8301169050919050565b7f4e487b7100000000000000000000000000000000000000000000000000000000600052604160045260246000fd5b610eca82610e81565b810181811067ffffffffffffffff82111715610ee957610ee8610e92565b5b80604052505050565b6000610efc610dca565b9050610f088282610ec1565b919050565b600067ffffffffffffffff821115610f2857610f27610e92565b5b610f3182610e81565b9050602081019050919050565b82818337600083830152505050565b6000610f60610f5b84610f0d565b610ef2565b905082815260208101848484011115610f7c57610f7b610e7c565b5b610f87848285610f3e565b509392505050565b600082601f830112610fa457610fa3610e77565b5b8135610fb4848260208601610f4d565b91505092915050565b60008060408385031215610fd457610fd3610dd4565b5b6000610fe285828601610dff565b925050602083013567ffffffffffffffff81111561100357611002610dd9565b5b61100f85828601610f8f565b9150509250929050565b600063ffffffff82169050919050565b61103281611019565b811461103d57600080fd5b50565b60008135905061104f81611029565b92915050565b6000806040838503121561106c5761106b610dd4565b5b600083013567ffffffffffffffff81111561108a57611089610dd9565b5b61109685828601610f8f565b92505060206110a785828601611040565b9150509250929050565b600073ffffffffffffffffffffffffffffffffffffffff82169050919050565b60006110dc826110b1565b9050919050565b6110ec816110d1565b82525050565b600060208201905061110760008301846110e3565b92915050565b61111681610dde565b82525050565b6000602082019050611131600083018461110d565b92915050565b600081519050919050565b600082825260208201905092915050565b60005b83811015611171578082015181840152602081019050611156565b60008484015250505050565b600061118882611137565b6111928185611142565b93506111a2818560208601611153565b6111ab81610e81565b840191505092915050565b600060208201905081810360008301526111d0818461117d565b905092915050565b600081519050919050565b600082825260208201905092915050565b6000819050602082019050919050565b600082825260208201905092915050565b600061122082611137565b61122a8185611204565b935061123a818560208601611153565b61124381610e81565b840191505092915050565b611257816110d1565b82525050565b61126681611019565b82525050565b61127581610e41565b82525050565b600060a08301600083015184820360008601526112988282611215565b91505060208301516112ad602086018261124e565b5060408301516112c0604086018261125d565b5060608301516112d3606086018261126c565b5060808301516112e6608086018261126c565b508091505092915050565b60006112fd838361127b565b905092915050565b6000602082019050919050565b600061131d826111d8565b61132781856111e3565b935083602082028501611339856111f4565b8060005b85811015611375578484038952815161135685826112f1565b945061136183611305565b925060208a0199505060018101905061133d565b50829750879550505050505092915050565b600060208201905081810360008301526113a18184611312565b905092915050565b6113b2816110d1565b81146113bd57600080fd5b50565b6000813590506113cf816113a9565b92915050565b6000602082840312156113eb576113ea610dd4565b5b60006113f9848285016113c0565b91505092915050565b7f4e487b7100000000000000000000000000000000000000000000000000000000600052603260045260246000fd5b7f4f776e61626c653a2063616c6c6572206973206e6f7420746865206f776e6572600082015250565b6000611467602083611142565b915061147282611431565b602082019050919050565b600060208201905081810360008301526114968161145a565b9050919050565b600081905092915050565b50565b60006114b860008361149d565b91506114c3826114a8565b600082019050919050565b60006114d9826114ab565b9150819050919050565b60006114ee82611137565b6114f8818561149d565b9350611508818560208601611153565b80840191505092915050565b600061152082846114e3565b915081905092915050565b7f54776565742063616e6e6f7420626520656d7074792e00000000000000000000600082015250565b6000611561601683611142565b915061156c8261152b565b602082019050919050565b6000602082019050818103600083015261159081611554565b9050919050565b7f547765657420697320746f6f206c6f6e672e0000000000000000000000000000600082015250565b60006115cd601283611142565b91506115d882611597565b602082019050919050565b600060208201905081810360008301526115fc816115c0565b9050919050565b7f4e487b7100000000000000000000000000000000000000000000000000000000600052602260045260246000fd5b6000600282049050600182168061164a57607f821691505b60208210810361165d5761165c611603565b5b50919050565b60008190508160005260206000209050919050565b60006020601f8301049050919050565b600082821b905092915050565b6000600883026116c57fffffffffffffffffffffffffffffffffffffffffffffffffffffffffffffffff82611688565b6116cf8683611688565b95508019841693508086168417925050509392505050565b6000819050919050565b600061170c61170761170284610dde565b6116e7565b610dde565b9050919050565b6000819050919050565b611726836116f1565b61173a61173282611713565b848454611695565b825550505050565b600090565b61174f611742565b61175a81848461171d565b505050565b5b8181101561177e57611773600082611747565b600181019050611760565b5050565b601f8211156117c35761179481611663565b61179d84611678565b810160208510156117ac578190505b6117c06117b885611678565b83018261175f565b50505b505050565b600082821c905092915050565b60006117e6600019846008026117c8565b1980831691505092915050565b60006117ff83836117d5565b9150826002028217905092915050565b61181882611137565b67ffffffffffffffff81111561183157611830610e92565b5b61183b8254611632565b611846828285611782565b600060209050601f8311600181146118795760008415611867578287015190505b61187185826117f3565b8655506118d9565b601f19841661188786611663565b60005b828110156118af5784890151825560018201915060208501945060208101905061188a565b868310156118cc57848901516118c8601f8916826117d5565b8355505b6001600288020188555050505b505050505050565b600060408201905081810360008301526118fb818561117d565b905061190a602083018461110d565b9392505050565b7f4e487b7100000000000000000000000000000000000000000000000000000000600052601160045260246000fd5b600061194b82610dde565b915061195683610dde565b925082820390508181111561196e5761196d611911565b5b92915050565b600061198f61198a61198584611019565b6116e7565b610dde565b9050919050565b61199f81611974565b82525050565b600060808201905081810360008301526119bf818761117d565b90506119ce60208301866110e3565b6119db6040830185611996565b6119e8606083018461110d565b95945050505050565b7f4f776e61626c653a206e6577206f776e657220697320746865207a65726f206160008201527f6464726573730000000000000000000000000000000000000000000000000000602082015250565b6000611a4d602683611142565b9150611a58826119f1565b604082019050919050565b60006020820190508181036000830152611a7c81611a40565b905091905056fea2646970667358221220a66abff62e2e040e1b3839a30d3ed7a88cecc521cc051c1297957eff5fec345064736f6c63430008110033","opcodes":"PUSH1 0x80 PUSH1 0x40 MSTORE CALLVALUE DUP1 ISZERO PUSH2 0x10 JUMPI PUSH1 0x0 DUP1 REVERT JUMPDEST POP PUSH2 0x20 CALLER PUSH2 0x25 PUSH1 0x20 SHL PUSH1 0x20 SHR JUMP JUMPDEST PUSH2 0xE9 JUMP JUMPDEST PUSH1 0x0 DUP1 PUSH1 0x0 SWAP1 SLOAD SWAP1 PUSH2 0x100 EXP SWAP1 DIV PUSH20 0xFFFFFFFFFFFFFFFFFFFFFFFFFFFFFFFFFFFFFFFF AND SWAP1 POP DUP2 PUSH1 0x0 DUP1 PUSH2 0x100 EXP DUP2 SLOAD DUP2 PUSH20 0xFFFFFFFFFFFFFFFFFFFFFFFFFFFFFFFFFFFFFFFF MUL NOT AND SWAP1 DUP4 PUSH20 0xFFFFFFFFFFFFFFFFFFFFFFFFFFFFFFFFFFFFFFFF AND MUL OR SWAP1 SSTORE POP DUP2 PUSH20 0xFFFFFFFFFFFFFFFFFFFFFFFFFFFFFFFFFFFFFFFF AND DUP2 PUSH20 0xFFFFFFFFFFFFFFFFFFFFFFFFFFFFFFFFFFFFFFFF AND PUSH32 0x8BE0079C531659141344CD1FD0A4F28419497F9722A3DAAFE3B4186F6B6457E0 PUSH1 0x40 MLOAD PUSH1 0x40 MLOAD DUP1 SWAP2 SUB SWAP1 LOG3 POP POP JUMP JUMPDEST PUSH2 0x1AB9 DUP1 PUSH2 0xF8 PUSH1 0x0 CODECOPY PUSH1 0x0 RETURN INVALID PUSH1 0x80 PUSH1 0x40 MSTORE CALLVALUE DUP1 ISZERO PUSH2 0x10 JUMPI PUSH1 0x0 DUP1 REVERT JUMPDEST POP PUSH1 0x4 CALLDATASIZE LT PUSH2 0xCF JUMPI PUSH1 0x0 CALLDATALOAD PUSH1 0xE0 SHR DUP1 PUSH4 0xB9C19726 GT PUSH2 0x8C JUMPI DUP1 PUSH4 0xD901CBE3 GT PUSH2 0x66 JUMPI DUP1 PUSH4 0xD901CBE3 EQ PUSH2 0x1FE JUMPI DUP1 PUSH4 0xE749E022 EQ PUSH2 0x22E JUMPI DUP1 PUSH4 0xF1DCD93F EQ PUSH2 0x25E JUMPI DUP1 PUSH4 0xF2FDE38B EQ PUSH2 0x27C JUMPI PUSH2 0xCF JUMP JUMPDEST DUP1 PUSH4 0xB9C19726 EQ PUSH2 0x180 JUMPI DUP1 PUSH4 0xBC820C10 EQ PUSH2 0x1B0 JUMPI DUP1 PUSH4 0xC5DDAC73 EQ PUSH2 0x1CE JUMPI PUSH2 0xCF JUMP JUMPDEST DUP1 PUSH4 0xBBFFE24 EQ PUSH2 0xD4 JUMPI DUP1 PUSH4 0x171ABCA5 EQ PUSH2 0x104 JUMPI DUP1 PUSH4 0x715018A6 EQ PUSH2 0x120 JUMPI DUP1 PUSH4 0x735C514A EQ PUSH2 0x12A JUMPI DUP1 PUSH4 0x8DA5CB5B EQ PUSH2 0x146 JUMPI DUP1 PUSH4 0x9C0CCE8D EQ PUSH2 0x164 JUMPI JUMPDEST PUSH1 0x0 DUP1 REVERT JUMPDEST PUSH2 0xEE PUSH1 0x4 DUP1 CALLDATASIZE SUB DUP2 ADD SWAP1 PUSH2 0xE9 SWAP2 SWAP1 PUSH2 0xE14 JUMP JUMPDEST PUSH2 0x298 JUMP JUMPDEST PUSH1 0x40 MLOAD PUSH2 0xFB SWAP2 SWAP1 PUSH2 0xE5C JUMP JUMPDEST PUSH1 0x40 MLOAD DUP1 SWAP2 SUB SWAP1 RETURN JUMPDEST PUSH2 0x11E PUSH1 0x4 DUP1 CALLDATASIZE SUB DUP2 ADD SWAP1 PUSH2 0x119 SWAP2 SWAP1 PUSH2 0xFBD JUMP JUMPDEST PUSH2 0x2D4 JUMP JUMPDEST STOP JUMPDEST PUSH2 0x128 PUSH2 0x505 JUMP JUMPDEST STOP JUMPDEST PUSH2 0x144 PUSH1 0x4 DUP1 CALLDATASIZE SUB DUP2 ADD SWAP1 PUSH2 0x13F SWAP2 SWAP1 PUSH2 0x1055 JUMP JUMPDEST PUSH2 0x519 JUMP JUMPDEST STOP JUMPDEST PUSH2 0x14E PUSH2 0x781 JUMP JUMPDEST PUSH1 0x40 MLOAD PUSH2 0x15B SWAP2 SWAP1 PUSH2 0x10F2 JUMP JUMPDEST PUSH1 0x40 MLOAD DUP1 SWAP2 SUB SWAP1 RETURN JUMPDEST PUSH2 0x17E PUSH1 0x4 DUP1 CALLDATASIZE SUB DUP2 ADD SWAP1 PUSH2 0x179 SWAP2 SWAP1 PUSH2 0xE14 JUMP JUMPDEST PUSH2 0x7AA JUMP JUMPDEST STOP JUMPDEST PUSH2 0x19A PUSH1 0x4 DUP1 CALLDATASIZE SUB DUP2 ADD SWAP1 PUSH2 0x195 SWAP2 SWAP1 PUSH2 0xE14 JUMP JUMPDEST PUSH2 0x8D5 JUMP JUMPDEST PUSH1 0x40 MLOAD PUSH2 0x1A7 SWAP2 SWAP1 PUSH2 0x111C JUMP JUMPDEST PUSH1 0x40 MLOAD DUP1 SWAP2 SUB SWAP1 RETURN JUMPDEST PUSH2 0x1B8 PUSH2 0x91A JUMP JUMPDEST PUSH1 0x40 MLOAD PUSH2 0x1C5 SWAP2 SWAP1 PUSH2 0x111C JUMP JUMPDEST PUSH1 0x40 MLOAD DUP1 SWAP2 SUB SWAP1 RETURN JUMPDEST PUSH2 0x1E8 PUSH1 0x4 DUP1 CALLDATASIZE SUB DUP2 ADD SWAP1 PUSH2 0x1E3 SWAP2 SWAP1 PUSH2 0xE14 JUMP JUMPDEST PUSH2 0x927 JUMP JUMPDEST PUSH1 0x40 MLOAD PUSH2 0x1F5 SWAP2 SWAP1 PUSH2 0xE5C JUMP JUMPDEST PUSH1 0x40 MLOAD DUP1 SWAP2 SUB SWAP1 RETURN JUMPDEST PUSH2 0x218 PUSH1 0x4 DUP1 CALLDATASIZE SUB DUP2 ADD SWAP1 PUSH2 0x213 SWAP2 SWAP1 PUSH2 0xE14 JUMP JUMPDEST PUSH2 0x963 JUMP JUMPDEST PUSH1 0x40 MLOAD PUSH2 0x225 SWAP2 SWAP1 PUSH2 0x10F2 JUMP JUMPDEST PUSH1 0x40 MLOAD DUP1 SWAP2 SUB SWAP1 RETURN JUMPDEST PUSH2 0x248 PUSH1 0x4 DUP1 CALLDATASIZE SUB DUP2 ADD SWAP1 PUSH2 0x243 SWAP2 SWAP1 PUSH2 0xE14 JUMP JUMPDEST PUSH2 0x9B2 JUMP JUMPDEST PUSH1 0x40 MLOAD PUSH2 0x255 SWAP2 SWAP1 PUSH2 0x11B6 JUMP JUMPDEST PUSH1 0x40 MLOAD DUP1 SWAP2 SUB SWAP1 RETURN JUMPDEST PUSH2 0x266 PUSH2 0xA69 JUMP JUMPDEST PUSH1 0x40 MLOAD PUSH2 0x273 SWAP2 SWAP1 PUSH2 0x1387 JUMP JUMPDEST PUSH1 0x40 MLOAD DUP1 SWAP2 SUB SWAP1 RETURN JUMPDEST PUSH2 0x296 PUSH1 0x4 DUP1 CALLDATASIZE SUB DUP2 ADD SWAP1 PUSH2 0x291 SWAP2 SWAP1 PUSH2 0x13D5 JUMP JUMPDEST PUSH2 0xC0C JUMP JUMPDEST STOP JUMPDEST PUSH1 0x0 PUSH1 0x1 DUP3 DUP2 SLOAD DUP2 LT PUSH2 0x2AE JUMPI PUSH2 0x2AD PUSH2 0x1402 JUMP JUMPDEST JUMPDEST SWAP1 PUSH1 0x0 MSTORE PUSH1 0x20 PUSH1 0x0 KECCAK256 SWAP1 PUSH1 0x2 MUL ADD PUSH1 0x1 ADD PUSH1 0x18 SWAP1 SLOAD SWAP1 PUSH2 0x100 EXP SWAP1 DIV PUSH1 0xFF AND SWAP1 POP SWAP2 SWAP1 POP JUMP JUMPDEST PUSH1 0x1 DUP3 DUP2 SLOAD DUP2 LT PUSH2 0x2E8 JUMPI PUSH2 0x2E7 PUSH2 0x1402 JUMP JUMPDEST JUMPDEST SWAP1 PUSH1 0x0 MSTORE PUSH1 0x20 PUSH1 0x0 KECCAK256 SWAP1 PUSH1 0x2 MUL ADD PUSH1 0x1 ADD PUSH1 0x0 SWAP1 SLOAD SWAP1 PUSH2 0x100 EXP SWAP1 DIV PUSH20 0xFFFFFFFFFFFFFFFFFFFFFFFFFFFFFFFFFFFFFFFF AND PUSH20 0xFFFFFFFFFFFFFFFFFFFFFFFFFFFFFFFFFFFFFFFF AND CALLER PUSH20 0xFFFFFFFFFFFFFFFFFFFFFFFFFFFFFFFFFFFFFFFF AND EQ PUSH2 0x387 JUMPI PUSH1 0x40 MLOAD PUSH32 0x8C379A000000000000000000000000000000000000000000000000000000000 DUP2 MSTORE PUSH1 0x4 ADD PUSH2 0x37E SWAP1 PUSH2 0x147D JUMP JUMPDEST PUSH1 0x40 MLOAD DUP1 SWAP2 SUB SWAP1 REVERT JUMPDEST PUSH1 0x40 MLOAD PUSH1 0x20 ADD PUSH2 0x396 SWAP1 PUSH2 0x14CE JUMP JUMPDEST PUSH1 0x40 MLOAD PUSH1 0x20 DUP2 DUP4 SUB SUB DUP2 MSTORE SWAP1 PUSH1 0x40 MSTORE DUP1 MLOAD SWAP1 PUSH1 0x20 ADD KECCAK256 DUP2 PUSH1 0x40 MLOAD PUSH1 0x20 ADD PUSH2 0x3BD SWAP2 SWAP1 PUSH2 0x1514 JUMP JUMPDEST PUSH1 0x40 MLOAD PUSH1 0x20 DUP2 DUP4 SUB SUB DUP2 MSTORE SWAP1 PUSH1 0x40 MSTORE DUP1 MLOAD SWAP1 PUSH1 0x20 ADD KECCAK256 SUB PUSH2 0x413 JUMPI PUSH1 0x40 MLOAD PUSH32 0x8C379A000000000000000000000000000000000000000000000000000000000 DUP2 MSTORE PUSH1 0x4 ADD PUSH2 0x40A SWAP1 PUSH2 0x1577 JUMP JUMPDEST PUSH1 0x40 MLOAD DUP1 SWAP2 SUB SWAP1 REVERT JUMPDEST PUSH1 0x8C DUP2 MLOAD GT ISZERO PUSH2 0x458 JUMPI PUSH1 0x40 MLOAD PUSH32 0x8C379A000000000000000000000000000000000000000000000000000000000 DUP2 MSTORE PUSH1 0x4 ADD PUSH2 0x44F SWAP1 PUSH2 0x15E3 JUMP JUMPDEST PUSH1 0x40 MLOAD DUP1 SWAP2 SUB SWAP1 REVERT JUMPDEST DUP1 PUSH1 0x1 DUP4 DUP2 SLOAD DUP2 LT PUSH2 0x46D JUMPI PUSH2 0x46C PUSH2 0x1402 JUMP JUMPDEST JUMPDEST SWAP1 PUSH1 0x0 MSTORE PUSH1 0x20 PUSH1 0x0 KECCAK256 SWAP1 PUSH1 0x2 MUL ADD PUSH1 0x0 ADD SWAP1 DUP2 PUSH2 0x48A SWAP2 SWAP1 PUSH2 0x180F JUMP JUMPDEST POP PUSH1 0x1 DUP1 DUP4 DUP2 SLOAD DUP2 LT PUSH2 0x4A0 JUMPI PUSH2 0x49F PUSH2 0x1402 JUMP JUMPDEST JUMPDEST SWAP1 PUSH1 0x0 MSTORE PUSH1 0x20 PUSH1 0x0 KECCAK256 SWAP1 PUSH1 0x2 MUL ADD PUSH1 0x1 ADD PUSH1 0x19 PUSH2 0x100 EXP DUP2 SLOAD DUP2 PUSH1 0xFF MUL NOT AND SWAP1 DUP4 ISZERO ISZERO MUL OR SWAP1 SSTORE POP PUSH32 0xB749870735375200743139840BE8C8CDB105748A51D782F8373B033D04431FD3 DUP2 DUP4 PUSH1 0x40 MLOAD PUSH2 0x4F9 SWAP3 SWAP2 SWAP1 PUSH2 0x18E1 JUMP JUMPDEST PUSH1 0x40 MLOAD DUP1 SWAP2 SUB SWAP1 LOG1 POP POP JUMP JUMPDEST PUSH2 0x50D PUSH2 0xC8F JUMP JUMPDEST PUSH2 0x517 PUSH1 0x0 PUSH2 0xD06 JUMP JUMPDEST JUMP JUMPDEST PUSH1 0x40 MLOAD PUSH1 0x20 ADD PUSH2 0x528 SWAP1 PUSH2 0x14CE JUMP JUMPDEST PUSH1 0x40 MLOAD PUSH1 0x20 DUP2 DUP4 SUB SUB DUP2 MSTORE SWAP1 PUSH1 0x40 MSTORE DUP1 MLOAD SWAP1 PUSH1 0x20 ADD KECCAK256 DUP3 PUSH1 0x40 MLOAD PUSH1 0x20 ADD PUSH2 0x54F SWAP2 SWAP1 PUSH2 0x1514 JUMP JUMPDEST PUSH1 0x40 MLOAD PUSH1 0x20 DUP2 DUP4 SUB SUB DUP2 MSTORE SWAP1 PUSH1 0x40 MSTORE DUP1 MLOAD SWAP1 PUSH1 0x20 ADD KECCAK256 SUB PUSH2 0x5A5 JUMPI PUSH1 0x40 MLOAD PUSH32 0x8C379A000000000000000000000000000000000000000000000000000000000 DUP2 MSTORE PUSH1 0x4 ADD PUSH2 0x59C SWAP1 PUSH2 0x1577 JUMP JUMPDEST PUSH1 0x40 MLOAD DUP1 SWAP2 SUB SWAP1 REVERT JUMPDEST PUSH1 0x8C DUP3 MLOAD GT ISZERO PUSH2 0x5EA JUMPI PUSH1 0x40 MLOAD PUSH32 0x8C379A000000000000000000000000000000000000000000000000000000000 DUP2 MSTORE PUSH1 0x4 ADD PUSH2 0x5E1 SWAP1 PUSH2 0x15E3 JUMP JUMPDEST PUSH1 0x40 MLOAD DUP1 SWAP2 SUB SWAP1 REVERT JUMPDEST PUSH1 0x0 CALLER SWAP1 POP PUSH1 0x1 PUSH1 0x40 MLOAD DUP1 PUSH1 0xA0 ADD PUSH1 0x40 MSTORE DUP1 DUP6 DUP2 MSTORE PUSH1 0x20 ADD DUP4 PUSH20 0xFFFFFFFFFFFFFFFFFFFFFFFFFFFFFFFFFFFFFFFF AND DUP2 MSTORE PUSH1 0x20 ADD DUP5 PUSH4 0xFFFFFFFF AND DUP2 MSTORE PUSH1 0x20 ADD PUSH1 0x1 ISZERO ISZERO DUP2 MSTORE PUSH1 0x20 ADD PUSH1 0x0 ISZERO ISZERO DUP2 MSTORE POP SWAP1 DUP1 PUSH1 0x1 DUP2 SLOAD ADD DUP1 DUP3 SSTORE DUP1 SWAP2 POP POP PUSH1 0x1 SWAP1 SUB SWAP1 PUSH1 0x0 MSTORE PUSH1 0x20 PUSH1 0x0 KECCAK256 SWAP1 PUSH1 0x2 MUL ADD PUSH1 0x0 SWAP1 SWAP2 SWAP1 SWAP2 SWAP1 SWAP2 POP PUSH1 0x0 DUP3 ADD MLOAD DUP2 PUSH1 0x0 ADD SWAP1 DUP2 PUSH2 0x678 SWAP2 SWAP1 PUSH2 0x180F JUMP JUMPDEST POP PUSH1 0x20 DUP3 ADD MLOAD DUP2 PUSH1 0x1 ADD PUSH1 0x0 PUSH2 0x100 EXP DUP2 SLOAD DUP2 PUSH20 0xFFFFFFFFFFFFFFFFFFFFFFFFFFFFFFFFFFFFFFFF MUL NOT AND SWAP1 DUP4 PUSH20 0xFFFFFFFFFFFFFFFFFFFFFFFFFFFFFFFFFFFFFFFF AND MUL OR SWAP1 SSTORE POP PUSH1 0x40 DUP3 ADD MLOAD DUP2 PUSH1 0x1 ADD PUSH1 0x14 PUSH2 0x100 EXP DUP2 SLOAD DUP2 PUSH4 0xFFFFFFFF MUL NOT AND SWAP1 DUP4 PUSH4 0xFFFFFFFF AND MUL OR SWAP1 SSTORE POP PUSH1 0x60 DUP3 ADD MLOAD DUP2 PUSH1 0x1 ADD PUSH1 0x18 PUSH2 0x100 EXP DUP2 SLOAD DUP2 PUSH1 0xFF MUL NOT AND SWAP1 DUP4 ISZERO ISZERO MUL OR SWAP1 SSTORE POP PUSH1 0x80 DUP3 ADD MLOAD DUP2 PUSH1 0x1 ADD PUSH1 0x19 PUSH2 0x100 EXP DUP2 SLOAD DUP2 PUSH1 0xFF MUL NOT AND SWAP1 DUP4 ISZERO ISZERO MUL OR SWAP1 SSTORE POP POP POP PUSH1 0x0 PUSH1 0x1 DUP1 DUP1 SLOAD SWAP1 POP PUSH2 0x73C SWAP2 SWAP1 PUSH2 0x1940 JUMP JUMPDEST SWAP1 POP PUSH32 0xE636B805E315E6C223E32C1C45C96245DE752BCC849619C1E3012449DF54ECE0 DUP5 DUP4 DUP6 DUP5 PUSH1 0x40 MLOAD PUSH2 0x773 SWAP5 SWAP4 SWAP3 SWAP2 SWAP1 PUSH2 0x19A5 JUMP JUMPDEST PUSH1 0x40 MLOAD DUP1 SWAP2 SUB SWAP1 LOG1 POP POP POP POP JUMP JUMPDEST PUSH1 0x0 DUP1 PUSH1 0x0 SWAP1 SLOAD SWAP1 PUSH2 0x100 EXP SWAP1 DIV PUSH20 0xFFFFFFFFFFFFFFFFFFFFFFFFFFFFFFFFFFFFFFFF AND SWAP1 POP SWAP1 JUMP JUMPDEST PUSH1 0x1 DUP2 DUP2 SLOAD DUP2 LT PUSH2 0x7BE JUMPI PUSH2 0x7BD PUSH2 0x1402 JUMP JUMPDEST JUMPDEST SWAP1 PUSH1 0x0 MSTORE PUSH1 0x20 PUSH1 0x0 KECCAK256 SWAP1 PUSH1 0x2 MUL ADD PUSH1 0x1 ADD PUSH1 0x0 SWAP1 SLOAD SWAP1 PUSH2 0x100 EXP SWAP1 DIV PUSH20 0xFFFFFFFFFFFFFFFFFFFFFFFFFFFFFFFFFFFFFFFF AND PUSH20 0xFFFFFFFFFFFFFFFFFFFFFFFFFFFFFFFFFFFFFFFF AND CALLER PUSH20 0xFFFFFFFFFFFFFFFFFFFFFFFFFFFFFFFFFFFFFFFF AND EQ PUSH2 0x85D JUMPI PUSH1 0x40 MLOAD PUSH32 0x8C379A000000000000000000000000000000000000000000000000000000000 DUP2 MSTORE PUSH1 0x4 ADD PUSH2 0x854 SWAP1 PUSH2 0x147D JUMP JUMPDEST PUSH1 0x40 MLOAD DUP1 SWAP2 SUB SWAP1 REVERT JUMPDEST PUSH1 0x0 PUSH1 0x1 DUP3 DUP2 SLOAD DUP2 LT PUSH2 0x873 JUMPI PUSH2 0x872 PUSH2 0x1402 JUMP JUMPDEST JUMPDEST SWAP1 PUSH1 0x0 MSTORE PUSH1 0x20 PUSH1 0x0 KECCAK256 SWAP1 PUSH1 0x2 MUL ADD PUSH1 0x1 ADD PUSH1 0x18 PUSH2 0x100 EXP DUP2 SLOAD DUP2 PUSH1 0xFF MUL NOT AND SWAP1 DUP4 ISZERO ISZERO MUL OR SWAP1 SSTORE POP PUSH32 0x805CD43A167357339F81950BE6C6B1DC85AB6B73E8B942D73D6BC0D63A85CF98 DUP2 PUSH1 0x40 MLOAD PUSH2 0x8CA SWAP2 SWAP1 PUSH2 0x111C JUMP JUMPDEST PUSH1 0x40 MLOAD DUP1 SWAP2 SUB SWAP1 LOG1 POP JUMP JUMPDEST PUSH1 0x0 PUSH1 0x1 DUP3 DUP2 SLOAD DUP2 LT PUSH2 0x8EB JUMPI PUSH2 0x8EA PUSH2 0x1402 JUMP JUMPDEST JUMPDEST SWAP1 PUSH1 0x0 MSTORE PUSH1 0x20 PUSH1 0x0 KECCAK256 SWAP1 PUSH1 0x2 MUL ADD PUSH1 0x1 ADD PUSH1 0x14 SWAP1 SLOAD SWAP1 PUSH2 0x100 EXP SWAP1 DIV PUSH4 0xFFFFFFFF AND PUSH4 0xFFFFFFFF AND SWAP1 POP SWAP2 SWAP1 POP JUMP JUMPDEST PUSH1 0x0 PUSH1 0x1 DUP1 SLOAD SWAP1 POP SWAP1 POP SWAP1 JUMP JUMPDEST PUSH1 0x0 PUSH1 0x1 DUP3 DUP2 SLOAD DUP2 LT PUSH2 0x93D JUMPI PUSH2 0x93C PUSH2 0x1402 JUMP JUMPDEST JUMPDEST SWAP1 PUSH1 0x0 MSTORE PUSH1 0x20 PUSH1 0x0 KECCAK256 SWAP1 PUSH1 0x2 MUL ADD PUSH1 0x1 ADD PUSH1 0x19 SWAP1 SLOAD SWAP1 PUSH2 0x100 EXP SWAP1 DIV PUSH1 0xFF AND SWAP1 POP SWAP2 SWAP1 POP JUMP JUMPDEST PUSH1 0x0 PUSH1 0x1 DUP3 DUP2 SLOAD DUP2 LT PUSH2 0x979 JUMPI PUSH2 0x978 PUSH2 0x1402 JUMP JUMPDEST JUMPDEST SWAP1 PUSH1 0x0 MSTORE PUSH1 0x20 PUSH1 0x0 KECCAK256 SWAP1 PUSH1 0x2 MUL ADD PUSH1 0x1 ADD PUSH1 0x0 SWAP1 SLOAD SWAP1 PUSH2 0x100 EXP SWAP1 DIV PUSH20 0xFFFFFFFFFFFFFFFFFFFFFFFFFFFFFFFFFFFFFFFF AND SWAP1 POP SWAP2 SWAP1 POP JUMP JUMPDEST PUSH1 0x60 PUSH1 0x1 DUP3 DUP2 SLOAD DUP2 LT PUSH2 0x9C8 JUMPI PUSH2 0x9C7 PUSH2 0x1402 JUMP JUMPDEST JUMPDEST SWAP1 PUSH1 0x0 MSTORE PUSH1 0x20 PUSH1 0x0 KECCAK256 SWAP1 PUSH1 0x2 MUL ADD PUSH1 0x0 ADD DUP1 SLOAD PUSH2 0x9E4 SWAP1 PUSH2 0x1632 JUMP JUMPDEST DUP1 PUSH1 0x1F ADD PUSH1 0x20 DUP1 SWAP2 DIV MUL PUSH1 0x20 ADD PUSH1 0x40 MLOAD SWAP1 DUP2 ADD PUSH1 0x40 MSTORE DUP1 SWAP3 SWAP2 SWAP1 DUP2 DUP2 MSTORE PUSH1 0x20 ADD DUP3 DUP1 SLOAD PUSH2 0xA10 SWAP1 PUSH2 0x1632 JUMP JUMPDEST DUP1 ISZERO PUSH2 0xA5D JUMPI DUP1 PUSH1 0x1F LT PUSH2 0xA32 JUMPI PUSH2 0x100 DUP1 DUP4 SLOAD DIV MUL DUP4 MSTORE SWAP2 PUSH1 0x20 ADD SWAP2 PUSH2 0xA5D JUMP JUMPDEST DUP3 ADD SWAP2 SWAP1 PUSH1 0x0 MSTORE PUSH1 0x20 PUSH1 0x0 KECCAK256 SWAP1 JUMPDEST DUP2 SLOAD DUP2 MSTORE SWAP1 PUSH1 0x1 ADD SWAP1 PUSH1 0x20 ADD DUP1 DUP4 GT PUSH2 0xA40 JUMPI DUP3 SWAP1 SUB PUSH1 0x1F AND DUP3 ADD SWAP2 JUMPDEST POP POP POP POP POP SWAP1 POP SWAP2 SWAP1 POP JUMP JUMPDEST PUSH1 0x60 PUSH1 0x1 DUP1 SLOAD DUP1 PUSH1 0x20 MUL PUSH1 0x20 ADD PUSH1 0x40 MLOAD SWAP1 DUP2 ADD PUSH1 0x40 MSTORE DUP1 SWAP3 SWAP2 SWAP1 DUP2 DUP2 MSTORE PUSH1 0x20 ADD PUSH1 0x0 SWAP1 JUMPDEST DUP3 DUP3 LT ISZERO PUSH2 0xC03 JUMPI DUP4 DUP3 SWAP1 PUSH1 0x0 MSTORE PUSH1 0x20 PUSH1 0x0 KECCAK256 SWAP1 PUSH1 0x2 MUL ADD PUSH1 0x40 MLOAD DUP1 PUSH1 0xA0 ADD PUSH1 0x40 MSTORE SWAP1 DUP2 PUSH1 0x0 DUP3 ADD DUP1 SLOAD PUSH2 0xAC0 SWAP1 PUSH2 0x1632 JUMP JUMPDEST DUP1 PUSH1 0x1F ADD PUSH1 0x20 DUP1 SWAP2 DIV MUL PUSH1 0x20 ADD PUSH1 0x40 MLOAD SWAP1 DUP2 ADD PUSH1 0x40 MSTORE DUP1 SWAP3 SWAP2 SWAP1 DUP2 DUP2 MSTORE PUSH1 0x20 ADD DUP3 DUP1 SLOAD PUSH2 0xAEC SWAP1 PUSH2 0x1632 JUMP JUMPDEST DUP1 ISZERO PUSH2 0xB39 JUMPI DUP1 PUSH1 0x1F LT PUSH2 0xB0E JUMPI PUSH2 0x100 DUP1 DUP4 SLOAD DIV MUL DUP4 MSTORE SWAP2 PUSH1 0x20 ADD SWAP2 PUSH2 0xB39 JUMP JUMPDEST DUP3 ADD SWAP2 SWAP1 PUSH1 0x0 MSTORE PUSH1 0x20 PUSH1 0x0 KECCAK256 SWAP1 JUMPDEST DUP2 SLOAD DUP2 MSTORE SWAP1 PUSH1 0x1 ADD SWAP1 PUSH1 0x20 ADD DUP1 DUP4 GT PUSH2 0xB1C JUMPI DUP3 SWAP1 SUB PUSH1 0x1F AND DUP3 ADD SWAP2 JUMPDEST POP POP POP POP POP DUP2 MSTORE PUSH1 0x20 ADD PUSH1 0x1 DUP3 ADD PUSH1 0x0 SWAP1 SLOAD SWAP1 PUSH2 0x100 EXP SWAP1 DIV PUSH20 0xFFFFFFFFFFFFFFFFFFFFFFFFFFFFFFFFFFFFFFFF AND PUSH20 0xFFFFFFFFFFFFFFFFFFFFFFFFFFFFFFFFFFFFFFFF AND PUSH20 0xFFFFFFFFFFFFFFFFFFFFFFFFFFFFFFFFFFFFFFFF AND DUP2 MSTORE PUSH1 0x20 ADD PUSH1 0x1 DUP3 ADD PUSH1 0x14 SWAP1 SLOAD SWAP1 PUSH2 0x100 EXP SWAP1 DIV PUSH4 0xFFFFFFFF AND PUSH4 0xFFFFFFFF AND PUSH4 0xFFFFFFFF AND DUP2 MSTORE PUSH1 0x20 ADD PUSH1 0x1 DUP3 ADD PUSH1 0x18 SWAP1 SLOAD SWAP1 PUSH2 0x100 EXP SWAP1 DIV PUSH1 0xFF AND ISZERO ISZERO ISZERO ISZERO DUP2 MSTORE PUSH1 0x20 ADD PUSH1 0x1 DUP3 ADD PUSH1 0x19 SWAP1 SLOAD SWAP1 PUSH2 0x100 EXP SWAP1 DIV PUSH1 0xFF AND ISZERO ISZERO ISZERO ISZERO DUP2 MSTORE POP POP DUP2 MSTORE PUSH1 0x20 ADD SWAP1 PUSH1 0x1 ADD SWAP1 PUSH2 0xA8D JUMP JUMPDEST POP POP POP POP SWAP1 POP SWAP1 JUMP JUMPDEST PUSH2 0xC14 PUSH2 0xC8F JUMP JUMPDEST PUSH1 0x0 PUSH20 0xFFFFFFFFFFFFFFFFFFFFFFFFFFFFFFFFFFFFFFFF AND DUP2 PUSH20 0xFFFFFFFFFFFFFFFFFFFFFFFFFFFFFFFFFFFFFFFF AND SUB PUSH2 0xC83 JUMPI PUSH1 0x40 MLOAD PUSH32 0x8C379A000000000000000000000000000000000000000000000000000000000 DUP2 MSTORE PUSH1 0x4 ADD PUSH2 0xC7A SWAP1 PUSH2 0x1A63 JUMP JUMPDEST PUSH1 0x40 MLOAD DUP1 SWAP2 SUB SWAP1 REVERT JUMPDEST PUSH2 0xC8C DUP2 PUSH2 0xD06 JUMP JUMPDEST POP JUMP JUMPDEST CALLER PUSH20 0xFFFFFFFFFFFFFFFFFFFFFFFFFFFFFFFFFFFFFFFF AND PUSH2 0xCAE PUSH2 0x781 JUMP JUMPDEST PUSH20 0xFFFFFFFFFFFFFFFFFFFFFFFFFFFFFFFFFFFFFFFF AND EQ PUSH2 0xD04 JUMPI PUSH1 0x40 MLOAD PUSH32 0x8C379A000000000000000000000000000000000000000000000000000000000 DUP2 MSTORE PUSH1 0x4 ADD PUSH2 0xCFB SWAP1 PUSH2 0x147D JUMP JUMPDEST PUSH1 0x40 MLOAD DUP1 SWAP2 SUB SWAP1 REVERT JUMPDEST JUMP JUMPDEST PUSH1 0x0 DUP1 PUSH1 0x0 SWAP1 SLOAD SWAP1 PUSH2 0x100 EXP SWAP1 DIV PUSH20 0xFFFFFFFFFFFFFFFFFFFFFFFFFFFFFFFFFFFFFFFF AND SWAP1 POP DUP2 PUSH1 0x0 DUP1 PUSH2 0x100 EXP DUP2 SLOAD DUP2 PUSH20 0xFFFFFFFFFFFFFFFFFFFFFFFFFFFFFFFFFFFFFFFF MUL NOT AND SWAP1 DUP4 PUSH20 0xFFFFFFFFFFFFFFFFFFFFFFFFFFFFFFFFFFFFFFFF AND MUL OR SWAP1 SSTORE POP DUP2 PUSH20 0xFFFFFFFFFFFFFFFFFFFFFFFFFFFFFFFFFFFFFFFF AND DUP2 PUSH20 0xFFFFFFFFFFFFFFFFFFFFFFFFFFFFFFFFFFFFFFFF AND PUSH32 0x8BE0079C531659141344CD1FD0A4F28419497F9722A3DAAFE3B4186F6B6457E0 PUSH1 0x40 MLOAD PUSH1 0x40 MLOAD DUP1 SWAP2 SUB SWAP1 LOG3 POP POP JUMP JUMPDEST PUSH1 0x0 PUSH1 0x40 MLOAD SWAP1 POP SWAP1 JUMP JUMPDEST PUSH1 0x0 DUP1 REVERT JUMPDEST PUSH1 0x0 DUP1 REVERT JUMPDEST PUSH1 0x0 DUP2 SWAP1 POP SWAP2 SWAP1 POP JUMP JUMPDEST PUSH2 0xDF1 DUP2 PUSH2 0xDDE JUMP JUMPDEST DUP2 EQ PUSH2 0xDFC JUMPI PUSH1 0x0 DUP1 REVERT JUMPDEST POP JUMP JUMPDEST PUSH1 0x0 DUP2 CALLDATALOAD SWAP1 POP PUSH2 0xE0E DUP2 PUSH2 0xDE8 JUMP JUMPDEST SWAP3 SWAP2 POP POP JUMP JUMPDEST PUSH1 0x0 PUSH1 0x20 DUP3 DUP5 SUB SLT ISZERO PUSH2 0xE2A JUMPI PUSH2 0xE29 PUSH2 0xDD4 JUMP JUMPDEST JUMPDEST PUSH1 0x0 PUSH2 0xE38 DUP5 DUP3 DUP6 ADD PUSH2 0xDFF JUMP JUMPDEST SWAP2 POP POP SWAP3 SWAP2 POP POP JUMP JUMPDEST PUSH1 0x0 DUP2 ISZERO ISZERO SWAP1 POP SWAP2 SWAP1 POP JUMP JUMPDEST PUSH2 0xE56 DUP2 PUSH2 0xE41 JUMP JUMPDEST DUP3 MSTORE POP POP JUMP JUMPDEST PUSH1 0x0 PUSH1 0x20 DUP3 ADD SWAP1 POP PUSH2 0xE71 PUSH1 0x0 DUP4 ADD DUP5 PUSH2 0xE4D JUMP JUMPDEST SWAP3 SWAP2 POP POP JUMP JUMPDEST PUSH1 0x0 DUP1 REVERT JUMPDEST PUSH1 0x0 DUP1 REVERT JUMPDEST PUSH1 0x0 PUSH1 0x1F NOT PUSH1 0x1F DUP4 ADD AND SWAP1 POP SWAP2 SWAP1 POP JUMP JUMPDEST PUSH32 0x4E487B7100000000000000000000000000000000000000000000000000000000 PUSH1 0x0 MSTORE PUSH1 0x41 PUSH1 0x4 MSTORE PUSH1 0x24 PUSH1 0x0 REVERT JUMPDEST PUSH2 0xECA DUP3 PUSH2 0xE81 JUMP JUMPDEST DUP2 ADD DUP2 DUP2 LT PUSH8 0xFFFFFFFFFFFFFFFF DUP3 GT OR ISZERO PUSH2 0xEE9 JUMPI PUSH2 0xEE8 PUSH2 0xE92 JUMP JUMPDEST JUMPDEST DUP1 PUSH1 0x40 MSTORE POP POP POP JUMP JUMPDEST PUSH1 0x0 PUSH2 0xEFC PUSH2 0xDCA JUMP JUMPDEST SWAP1 POP PUSH2 0xF08 DUP3 DUP3 PUSH2 0xEC1 JUMP JUMPDEST SWAP2 SWAP1 POP JUMP JUMPDEST PUSH1 0x0 PUSH8 0xFFFFFFFFFFFFFFFF DUP3 GT ISZERO PUSH2 0xF28 JUMPI PUSH2 0xF27 PUSH2 0xE92 JUMP JUMPDEST JUMPDEST PUSH2 0xF31 DUP3 PUSH2 0xE81 JUMP JUMPDEST SWAP1 POP PUSH1 0x20 DUP2 ADD SWAP1 POP SWAP2 SWAP1 POP JUMP JUMPDEST DUP3 DUP2 DUP4 CALLDATACOPY PUSH1 0x0 DUP4 DUP4 ADD MSTORE POP POP POP JUMP JUMPDEST PUSH1 0x0 PUSH2 0xF60 PUSH2 0xF5B DUP5 PUSH2 0xF0D JUMP JUMPDEST PUSH2 0xEF2 JUMP JUMPDEST SWAP1 POP DUP3 DUP2 MSTORE PUSH1 0x20 DUP2 ADD DUP5 DUP5 DUP5 ADD GT ISZERO PUSH2 0xF7C JUMPI PUSH2 0xF7B PUSH2 0xE7C JUMP JUMPDEST JUMPDEST PUSH2 0xF87 DUP5 DUP3 DUP6 PUSH2 0xF3E JUMP JUMPDEST POP SWAP4 SWAP3 POP POP POP JUMP JUMPDEST PUSH1 0x0 DUP3 PUSH1 0x1F DUP4 ADD SLT PUSH2 0xFA4 JUMPI PUSH2 0xFA3 PUSH2 0xE77 JUMP JUMPDEST JUMPDEST DUP2 CALLDATALOAD PUSH2 0xFB4 DUP5 DUP3 PUSH1 0x20 DUP7 ADD PUSH2 0xF4D JUMP JUMPDEST SWAP2 POP POP SWAP3 SWAP2 POP POP JUMP JUMPDEST PUSH1 0x0 DUP1 PUSH1 0x40 DUP4 DUP6 SUB SLT ISZERO PUSH2 0xFD4 JUMPI PUSH2 0xFD3 PUSH2 0xDD4 JUMP JUMPDEST JUMPDEST PUSH1 0x0 PUSH2 0xFE2 DUP6 DUP3 DUP7 ADD PUSH2 0xDFF JUMP JUMPDEST SWAP3 POP POP PUSH1 0x20 DUP4 ADD CALLDATALOAD PUSH8 0xFFFFFFFFFFFFFFFF DUP2 GT ISZERO PUSH2 0x1003 JUMPI PUSH2 0x1002 PUSH2 0xDD9 JUMP JUMPDEST JUMPDEST PUSH2 0x100F DUP6 DUP3 DUP7 ADD PUSH2 0xF8F JUMP JUMPDEST SWAP2 POP POP SWAP3 POP SWAP3 SWAP1 POP JUMP JUMPDEST PUSH1 0x0 PUSH4 0xFFFFFFFF DUP3 AND SWAP1 POP SWAP2 SWAP1 POP JUMP JUMPDEST PUSH2 0x1032 DUP2 PUSH2 0x1019 JUMP JUMPDEST DUP2 EQ PUSH2 0x103D JUMPI PUSH1 0x0 DUP1 REVERT JUMPDEST POP JUMP JUMPDEST PUSH1 0x0 DUP2 CALLDATALOAD SWAP1 POP PUSH2 0x104F DUP2 PUSH2 0x1029 JUMP JUMPDEST SWAP3 SWAP2 POP POP JUMP JUMPDEST PUSH1 0x0 DUP1 PUSH1 0x40 DUP4 DUP6 SUB SLT ISZERO PUSH2 0x106C JUMPI PUSH2 0x106B PUSH2 0xDD4 JUMP JUMPDEST JUMPDEST PUSH1 0x0 DUP4 ADD CALLDATALOAD PUSH8 0xFFFFFFFFFFFFFFFF DUP2 GT ISZERO PUSH2 0x108A JUMPI PUSH2 0x1089 PUSH2 0xDD9 JUMP JUMPDEST JUMPDEST PUSH2 0x1096 DUP6 DUP3 DUP7 ADD PUSH2 0xF8F JUMP JUMPDEST SWAP3 POP POP PUSH1 0x20 PUSH2 0x10A7 DUP6 DUP3 DUP7 ADD PUSH2 0x1040 JUMP JUMPDEST SWAP2 POP POP SWAP3 POP SWAP3 SWAP1 POP JUMP JUMPDEST PUSH1 0x0 PUSH20 0xFFFFFFFFFFFFFFFFFFFFFFFFFFFFFFFFFFFFFFFF DUP3 AND SWAP1 POP SWAP2 SWAP1 POP JUMP JUMPDEST PUSH1 0x0 PUSH2 0x10DC DUP3 PUSH2 0x10B1 JUMP JUMPDEST SWAP1 POP SWAP2 SWAP1 POP JUMP JUMPDEST PUSH2 0x10EC DUP2 PUSH2 0x10D1 JUMP JUMPDEST DUP3 MSTORE POP POP JUMP JUMPDEST PUSH1 0x0 PUSH1 0x20 DUP3 ADD SWAP1 POP PUSH2 0x1107 PUSH1 0x0 DUP4 ADD DUP5 PUSH2 0x10E3 JUMP JUMPDEST SWAP3 SWAP2 POP POP JUMP JUMPDEST PUSH2 0x1116 DUP2 PUSH2 0xDDE JUMP JUMPDEST DUP3 MSTORE POP POP JUMP JUMPDEST PUSH1 0x0 PUSH1 0x20 DUP3 ADD SWAP1 POP PUSH2 0x1131 PUSH1 0x0 DUP4 ADD DUP5 PUSH2 0x110D JUMP JUMPDEST SWAP3 SWAP2 POP POP JUMP JUMPDEST PUSH1 0x0 DUP2 MLOAD SWAP1 POP SWAP2 SWAP1 POP JUMP JUMPDEST PUSH1 0x0 DUP3 DUP3 MSTORE PUSH1 0x20 DUP3 ADD SWAP1 POP SWAP3 SWAP2 POP POP JUMP JUMPDEST PUSH1 0x0 JUMPDEST DUP4 DUP2 LT ISZERO PUSH2 0x1171 JUMPI DUP1 DUP3 ADD MLOAD DUP2 DUP5 ADD MSTORE PUSH1 0x20 DUP2 ADD SWAP1 POP PUSH2 0x1156 JUMP JUMPDEST PUSH1 0x0 DUP5 DUP5 ADD MSTORE POP POP POP POP JUMP JUMPDEST PUSH1 0x0 PUSH2 0x1188 DUP3 PUSH2 0x1137 JUMP JUMPDEST PUSH2 0x1192 DUP2 DUP6 PUSH2 0x1142 JUMP JUMPDEST SWAP4 POP PUSH2 0x11A2 DUP2 DUP6 PUSH1 0x20 DUP7 ADD PUSH2 0x1153 JUMP JUMPDEST PUSH2 0x11AB DUP2 PUSH2 0xE81 JUMP JUMPDEST DUP5 ADD SWAP2 POP POP SWAP3 SWAP2 POP POP JUMP JUMPDEST PUSH1 0x0 PUSH1 0x20 DUP3 ADD SWAP1 POP DUP2 DUP2 SUB PUSH1 0x0 DUP4 ADD MSTORE PUSH2 0x11D0 DUP2 DUP5 PUSH2 0x117D JUMP JUMPDEST SWAP1 POP SWAP3 SWAP2 POP POP JUMP JUMPDEST PUSH1 0x0 DUP2 MLOAD SWAP1 POP SWAP2 SWAP1 POP JUMP JUMPDEST PUSH1 0x0 DUP3 DUP3 MSTORE PUSH1 0x20 DUP3 ADD SWAP1 POP SWAP3 SWAP2 POP POP JUMP JUMPDEST PUSH1 0x0 DUP2 SWAP1 POP PUSH1 0x20 DUP3 ADD SWAP1 POP SWAP2 SWAP1 POP JUMP JUMPDEST PUSH1 0x0 DUP3 DUP3 MSTORE PUSH1 0x20 DUP3 ADD SWAP1 POP SWAP3 SWAP2 POP POP JUMP JUMPDEST PUSH1 0x0 PUSH2 0x1220 DUP3 PUSH2 0x1137 JUMP JUMPDEST PUSH2 0x122A DUP2 DUP6 PUSH2 0x1204 JUMP JUMPDEST SWAP4 POP PUSH2 0x123A DUP2 DUP6 PUSH1 0x20 DUP7 ADD PUSH2 0x1153 JUMP JUMPDEST PUSH2 0x1243 DUP2 PUSH2 0xE81 JUMP JUMPDEST DUP5 ADD SWAP2 POP POP SWAP3 SWAP2 POP POP JUMP JUMPDEST PUSH2 0x1257 DUP2 PUSH2 0x10D1 JUMP JUMPDEST DUP3 MSTORE POP POP JUMP JUMPDEST PUSH2 0x1266 DUP2 PUSH2 0x1019 JUMP JUMPDEST DUP3 MSTORE POP POP JUMP JUMPDEST PUSH2 0x1275 DUP2 PUSH2 0xE41 JUMP JUMPDEST DUP3 MSTORE POP POP JUMP JUMPDEST PUSH1 0x0 PUSH1 0xA0 DUP4 ADD PUSH1 0x0 DUP4 ADD MLOAD DUP5 DUP3 SUB PUSH1 0x0 DUP7 ADD MSTORE PUSH2 0x1298 DUP3 DUP3 PUSH2 0x1215 JUMP JUMPDEST SWAP2 POP POP PUSH1 0x20 DUP4 ADD MLOAD PUSH2 0x12AD PUSH1 0x20 DUP7 ADD DUP3 PUSH2 0x124E JUMP JUMPDEST POP PUSH1 0x40 DUP4 ADD MLOAD PUSH2 0x12C0 PUSH1 0x40 DUP7 ADD DUP3 PUSH2 0x125D JUMP JUMPDEST POP PUSH1 0x60 DUP4 ADD MLOAD PUSH2 0x12D3 PUSH1 0x60 DUP7 ADD DUP3 PUSH2 0x126C JUMP JUMPDEST POP PUSH1 0x80 DUP4 ADD MLOAD PUSH2 0x12E6 PUSH1 0x80 DUP7 ADD DUP3 PUSH2 0x126C JUMP JUMPDEST POP DUP1 SWAP2 POP POP SWAP3 SWAP2 POP POP JUMP JUMPDEST PUSH1 0x0 PUSH2 0x12FD DUP4 DUP4 PUSH2 0x127B JUMP JUMPDEST SWAP1 POP SWAP3 SWAP2 POP POP JUMP JUMPDEST PUSH1 0x0 PUSH1 0x20 DUP3 ADD SWAP1 POP SWAP2 SWAP1 POP JUMP JUMPDEST PUSH1 0x0 PUSH2 0x131D DUP3 PUSH2 0x11D8 JUMP JUMPDEST PUSH2 0x1327 DUP2 DUP6 PUSH2 0x11E3 JUMP JUMPDEST SWAP4 POP DUP4 PUSH1 0x20 DUP3 MUL DUP6 ADD PUSH2 0x1339 DUP6 PUSH2 0x11F4 JUMP JUMPDEST DUP1 PUSH1 0x0 JUMPDEST DUP6 DUP2 LT ISZERO PUSH2 0x1375 JUMPI DUP5 DUP5 SUB DUP10 MSTORE DUP2 MLOAD PUSH2 0x1356 DUP6 DUP3 PUSH2 0x12F1 JUMP JUMPDEST SWAP5 POP PUSH2 0x1361 DUP4 PUSH2 0x1305 JUMP JUMPDEST SWAP3 POP PUSH1 0x20 DUP11 ADD SWAP10 POP POP PUSH1 0x1 DUP2 ADD SWAP1 POP PUSH2 0x133D JUMP JUMPDEST POP DUP3 SWAP8 POP DUP8 SWAP6 POP POP POP POP POP POP SWAP3 SWAP2 POP POP JUMP JUMPDEST PUSH1 0x0 PUSH1 0x20 DUP3 ADD SWAP1 POP DUP2 DUP2 SUB PUSH1 0x0 DUP4 ADD MSTORE PUSH2 0x13A1 DUP2 DUP5 PUSH2 0x1312 JUMP JUMPDEST SWAP1 POP SWAP3 SWAP2 POP POP JUMP JUMPDEST PUSH2 0x13B2 DUP2 PUSH2 0x10D1 JUMP JUMPDEST DUP2 EQ PUSH2 0x13BD JUMPI PUSH1 0x0 DUP1 REVERT JUMPDEST POP JUMP JUMPDEST PUSH1 0x0 DUP2 CALLDATALOAD SWAP1 POP PUSH2 0x13CF DUP2 PUSH2 0x13A9 JUMP JUMPDEST SWAP3 SWAP2 POP POP JUMP JUMPDEST PUSH1 0x0 PUSH1 0x20 DUP3 DUP5 SUB SLT ISZERO PUSH2 0x13EB JUMPI PUSH2 0x13EA PUSH2 0xDD4 JUMP JUMPDEST JUMPDEST PUSH1 0x0 PUSH2 0x13F9 DUP5 DUP3 DUP6 ADD PUSH2 0x13C0 JUMP JUMPDEST SWAP2 POP POP SWAP3 SWAP2 POP POP JUMP JUMPDEST PUSH32 0x4E487B7100000000000000000000000000000000000000000000000000000000 PUSH1 0x0 MSTORE PUSH1 0x32 PUSH1 0x4 MSTORE PUSH1 0x24 PUSH1 0x0 REVERT JUMPDEST PUSH32 0x4F776E61626C653A2063616C6C6572206973206E6F7420746865206F776E6572 PUSH1 0x0 DUP3 ADD MSTORE POP JUMP JUMPDEST PUSH1 0x0 PUSH2 0x1467 PUSH1 0x20 DUP4 PUSH2 0x1142 JUMP JUMPDEST SWAP2 POP PUSH2 0x1472 DUP3 PUSH2 0x1431 JUMP JUMPDEST PUSH1 0x20 DUP3 ADD SWAP1 POP SWAP2 SWAP1 POP JUMP JUMPDEST PUSH1 0x0 PUSH1 0x20 DUP3 ADD SWAP1 POP DUP2 DUP2 SUB PUSH1 0x0 DUP4 ADD MSTORE PUSH2 0x1496 DUP2 PUSH2 0x145A JUMP JUMPDEST SWAP1 POP SWAP2 SWAP1 POP JUMP JUMPDEST PUSH1 0x0 DUP2 SWAP1 POP SWAP3 SWAP2 POP POP JUMP JUMPDEST POP JUMP JUMPDEST PUSH1 0x0 PUSH2 0x14B8 PUSH1 0x0 DUP4 PUSH2 0x149D JUMP JUMPDEST SWAP2 POP PUSH2 0x14C3 DUP3 PUSH2 0x14A8 JUMP JUMPDEST PUSH1 0x0 DUP3 ADD SWAP1 POP SWAP2 SWAP1 POP JUMP JUMPDEST PUSH1 0x0 PUSH2 0x14D9 DUP3 PUSH2 0x14AB JUMP JUMPDEST SWAP2 POP DUP2 SWAP1 POP SWAP2 SWAP1 POP JUMP JUMPDEST PUSH1 0x0 PUSH2 0x14EE DUP3 PUSH2 0x1137 JUMP JUMPDEST PUSH2 0x14F8 DUP2 DUP6 PUSH2 0x149D JUMP JUMPDEST SWAP4 POP PUSH2 0x1508 DUP2 DUP6 PUSH1 0x20 DUP7 ADD PUSH2 0x1153 JUMP JUMPDEST DUP1 DUP5 ADD SWAP2 POP POP SWAP3 SWAP2 POP POP JUMP JUMPDEST PUSH1 0x0 PUSH2 0x1520 DUP3 DUP5 PUSH2 0x14E3 JUMP JUMPDEST SWAP2 POP DUP2 SWAP1 POP SWAP3 SWAP2 POP POP JUMP JUMPDEST PUSH32 0x54776565742063616E6E6F7420626520656D7074792E00000000000000000000 PUSH1 0x0 DUP3 ADD MSTORE POP JUMP JUMPDEST PUSH1 0x0 PUSH2 0x1561 PUSH1 0x16 DUP4 PUSH2 0x1142 JUMP JUMPDEST SWAP2 POP PUSH2 0x156C DUP3 PUSH2 0x152B JUMP JUMPDEST PUSH1 0x20 DUP3 ADD SWAP1 POP SWAP2 SWAP1 POP JUMP JUMPDEST PUSH1 0x0 PUSH1 0x20 DUP3 ADD SWAP1 POP DUP2 DUP2 SUB PUSH1 0x0 DUP4 ADD MSTORE PUSH2 0x1590 DUP2 PUSH2 0x1554 JUMP JUMPDEST SWAP1 POP SWAP2 SWAP1 POP JUMP JUMPDEST PUSH32 0x547765657420697320746F6F206C6F6E672E0000000000000000000000000000 PUSH1 0x0 DUP3 ADD MSTORE POP JUMP JUMPDEST PUSH1 0x0 PUSH2 0x15CD PUSH1 0x12 DUP4 PUSH2 0x1142 JUMP JUMPDEST SWAP2 POP PUSH2 0x15D8 DUP3 PUSH2 0x1597 JUMP JUMPDEST PUSH1 0x20 DUP3 ADD SWAP1 POP SWAP2 SWAP1 POP JUMP JUMPDEST PUSH1 0x0 PUSH1 0x20 DUP3 ADD SWAP1 POP DUP2 DUP2 SUB PUSH1 0x0 DUP4 ADD MSTORE PUSH2 0x15FC DUP2 PUSH2 0x15C0 JUMP JUMPDEST SWAP1 POP SWAP2 SWAP1 POP JUMP JUMPDEST PUSH32 0x4E487B7100000000000000000000000000000000000000000000000000000000 PUSH1 0x0 MSTORE PUSH1 0x22 PUSH1 0x4 MSTORE PUSH1 0x24 PUSH1 0x0 REVERT JUMPDEST PUSH1 0x0 PUSH1 0x2 DUP3 DIV SWAP1 POP PUSH1 0x1 DUP3 AND DUP1 PUSH2 0x164A JUMPI PUSH1 0x7F DUP3 AND SWAP2 POP JUMPDEST PUSH1 0x20 DUP3 LT DUP2 SUB PUSH2 0x165D JUMPI PUSH2 0x165C PUSH2 0x1603 JUMP JUMPDEST JUMPDEST POP SWAP2 SWAP1 POP JUMP JUMPDEST PUSH1 0x0 DUP2 SWAP1 POP DUP2 PUSH1 0x0 MSTORE PUSH1 0x20 PUSH1 0x0 KECCAK256 SWAP1 POP SWAP2 SWAP1 POP JUMP JUMPDEST PUSH1 0x0 PUSH1 0x20 PUSH1 0x1F DUP4 ADD DIV SWAP1 POP SWAP2 SWAP1 POP JUMP JUMPDEST PUSH1 0x0 DUP3 DUP3 SHL SWAP1 POP SWAP3 SWAP2 POP POP JUMP JUMPDEST PUSH1 0x0 PUSH1 0x8 DUP4 MUL PUSH2 0x16C5 PUSH32 0xFFFFFFFFFFFFFFFFFFFFFFFFFFFFFFFFFFFFFFFFFFFFFFFFFFFFFFFFFFFFFFFF DUP3 PUSH2 0x1688 JUMP JUMPDEST PUSH2 0x16CF DUP7 DUP4 PUSH2 0x1688 JUMP JUMPDEST SWAP6 POP DUP1 NOT DUP5 AND SWAP4 POP DUP1 DUP7 AND DUP5 OR SWAP3 POP POP POP SWAP4 SWAP3 POP POP POP JUMP JUMPDEST PUSH1 0x0 DUP2 SWAP1 POP SWAP2 SWAP1 POP JUMP JUMPDEST PUSH1 0x0 PUSH2 0x170C PUSH2 0x1707 PUSH2 0x1702 DUP5 PUSH2 0xDDE JUMP JUMPDEST PUSH2 0x16E7 JUMP JUMPDEST PUSH2 0xDDE JUMP JUMPDEST SWAP1 POP SWAP2 SWAP1 POP JUMP JUMPDEST PUSH1 0x0 DUP2 SWAP1 POP SWAP2 SWAP1 POP JUMP JUMPDEST PUSH2 0x1726 DUP4 PUSH2 0x16F1 JUMP JUMPDEST PUSH2 0x173A PUSH2 0x1732 DUP3 PUSH2 0x1713 JUMP JUMPDEST DUP5 DUP5 SLOAD PUSH2 0x1695 JUMP JUMPDEST DUP3 SSTORE POP POP POP POP JUMP JUMPDEST PUSH1 0x0 SWAP1 JUMP JUMPDEST PUSH2 0x174F PUSH2 0x1742 JUMP JUMPDEST PUSH2 0x175A DUP2 DUP5 DUP5 PUSH2 0x171D JUMP JUMPDEST POP POP POP JUMP JUMPDEST JUMPDEST DUP2 DUP2 LT ISZERO PUSH2 0x177E JUMPI PUSH2 0x1773 PUSH1 0x0 DUP3 PUSH2 0x1747 JUMP JUMPDEST PUSH1 0x1 DUP2 ADD SWAP1 POP PUSH2 0x1760 JUMP JUMPDEST POP POP JUMP JUMPDEST PUSH1 0x1F DUP3 GT ISZERO PUSH2 0x17C3 JUMPI PUSH2 0x1794 DUP2 PUSH2 0x1663 JUMP JUMPDEST PUSH2 0x179D DUP5 PUSH2 0x1678 JUMP JUMPDEST DUP2 ADD PUSH1 0x20 DUP6 LT ISZERO PUSH2 0x17AC JUMPI DUP2 SWAP1 POP JUMPDEST PUSH2 0x17C0 PUSH2 0x17B8 DUP6 PUSH2 0x1678 JUMP JUMPDEST DUP4 ADD DUP3 PUSH2 0x175F JUMP JUMPDEST POP POP JUMPDEST POP POP POP JUMP JUMPDEST PUSH1 0x0 DUP3 DUP3 SHR SWAP1 POP SWAP3 SWAP2 POP POP JUMP JUMPDEST PUSH1 0x0 PUSH2 0x17E6 PUSH1 0x0 NOT DUP5 PUSH1 0x8 MUL PUSH2 0x17C8 JUMP JUMPDEST NOT DUP1 DUP4 AND SWAP2 POP POP SWAP3 SWAP2 POP POP JUMP JUMPDEST PUSH1 0x0 PUSH2 0x17FF DUP4 DUP4 PUSH2 0x17D5 JUMP JUMPDEST SWAP2 POP DUP3 PUSH1 0x2 MUL DUP3 OR SWAP1 POP SWAP3 SWAP2 POP POP JUMP JUMPDEST PUSH2 0x1818 DUP3 PUSH2 0x1137 JUMP JUMPDEST PUSH8 0xFFFFFFFFFFFFFFFF DUP2 GT ISZERO PUSH2 0x1831 JUMPI PUSH2 0x1830 PUSH2 0xE92 JUMP JUMPDEST JUMPDEST PUSH2 0x183B DUP3 SLOAD PUSH2 0x1632 JUMP JUMPDEST PUSH2 0x1846 DUP3 DUP3 DUP6 PUSH2 0x1782 JUMP JUMPDEST PUSH1 0x0 PUSH1 0x20 SWAP1 POP PUSH1 0x1F DUP4 GT PUSH1 0x1 DUP2 EQ PUSH2 0x1879 JUMPI PUSH1 0x0 DUP5 ISZERO PUSH2 0x1867 JUMPI DUP3 DUP8 ADD MLOAD SWAP1 POP JUMPDEST PUSH2 0x1871 DUP6 DUP3 PUSH2 0x17F3 JUMP JUMPDEST DUP7 SSTORE POP PUSH2 0x18D9 JUMP JUMPDEST PUSH1 0x1F NOT DUP5 AND PUSH2 0x1887 DUP7 PUSH2 0x1663 JUMP JUMPDEST PUSH1 0x0 JUMPDEST DUP3 DUP2 LT ISZERO PUSH2 0x18AF JUMPI DUP5 DUP10 ADD MLOAD DUP3 SSTORE PUSH1 0x1 DUP3 ADD SWAP2 POP PUSH1 0x20 DUP6 ADD SWAP5 POP PUSH1 0x20 DUP2 ADD SWAP1 POP PUSH2 0x188A JUMP JUMPDEST DUP7 DUP4 LT ISZERO PUSH2 0x18CC JUMPI DUP5 DUP10 ADD MLOAD PUSH2 0x18C8 PUSH1 0x1F DUP10 AND DUP3 PUSH2 0x17D5 JUMP JUMPDEST DUP4 SSTORE POP JUMPDEST PUSH1 0x1 PUSH1 0x2 DUP9 MUL ADD DUP9 SSTORE POP POP POP JUMPDEST POP POP POP POP POP POP JUMP JUMPDEST PUSH1 0x0 PUSH1 0x40 DUP3 ADD SWAP1 POP DUP2 DUP2 SUB PUSH1 0x0 DUP4 ADD MSTORE PUSH2 0x18FB DUP2 DUP6 PUSH2 0x117D JUMP JUMPDEST SWAP1 POP PUSH2 0x190A PUSH1 0x20 DUP4 ADD DUP5 PUSH2 0x110D JUMP JUMPDEST SWAP4 SWAP3 POP POP POP JUMP JUMPDEST PUSH32 0x4E487B7100000000000000000000000000000000000000000000000000000000 PUSH1 0x0 MSTORE PUSH1 0x11 PUSH1 0x4 MSTORE PUSH1 0x24 PUSH1 0x0 REVERT JUMPDEST PUSH1 0x0 PUSH2 0x194B DUP3 PUSH2 0xDDE JUMP JUMPDEST SWAP2 POP PUSH2 0x1956 DUP4 PUSH2 0xDDE JUMP JUMPDEST SWAP3 POP DUP3 DUP3 SUB SWAP1 POP DUP2 DUP2 GT ISZERO PUSH2 0x196E JUMPI PUSH2 0x196D PUSH2 0x1911 JUMP JUMPDEST JUMPDEST SWAP3 SWAP2 POP POP JUMP JUMPDEST PUSH1 0x0 PUSH2 0x198F PUSH2 0x198A PUSH2 0x1985 DUP5 PUSH2 0x1019 JUMP JUMPDEST PUSH2 0x16E7 JUMP JUMPDEST PUSH2 0xDDE JUMP JUMPDEST SWAP1 POP SWAP2 SWAP1 POP JUMP JUMPDEST PUSH2 0x199F DUP2 PUSH2 0x1974 JUMP JUMPDEST DUP3 MSTORE POP POP JUMP JUMPDEST PUSH1 0x0 PUSH1 0x80 DUP3 ADD SWAP1 POP DUP2 DUP2 SUB PUSH1 0x0 DUP4 ADD MSTORE PUSH2 0x19BF DUP2 DUP8 PUSH2 0x117D JUMP JUMPDEST SWAP1 POP PUSH2 0x19CE PUSH1 0x20 DUP4 ADD DUP7 PUSH2 0x10E3 JUMP JUMPDEST PUSH2 0x19DB PUSH1 0x40 DUP4 ADD DUP6 PUSH2 0x1996 JUMP JUMPDEST PUSH2 0x19E8 PUSH1 0x60 DUP4 ADD DUP5 PUSH2 0x110D JUMP JUMPDEST SWAP6 SWAP5 POP POP POP POP POP JUMP JUMPDEST PUSH32 0x4F776E61626C653A206E6577206F776E657220697320746865207A65726F2061 PUSH1 0x0 DUP3 ADD MSTORE PUSH32 0x6464726573730000000000000000000000000000000000000000000000000000 PUSH1 0x20 DUP3 ADD MSTORE POP JUMP JUMPDEST PUSH1 0x0 PUSH2 0x1A4D PUSH1 0x26 DUP4 PUSH2 0x1142 JUMP JUMPDEST SWAP2 POP PUSH2 0x1A58 DUP3 PUSH2 0x19F1 JUMP JUMPDEST PUSH1 0x40 DUP3 ADD SWAP1 POP SWAP2 SWAP1 POP JUMP JUMPDEST PUSH1 0x0 PUSH1 0x20 DUP3 ADD SWAP1 POP DUP2 DUP2 SUB PUSH1 0x0 DUP4 ADD MSTORE PUSH2 0x1A7C DUP2 PUSH2 0x1A40 JUMP JUMPDEST SWAP1 POP SWAP2 SWAP1 POP JUMP INVALID LOG2 PUSH5 0x6970667358 0x22 SLT KECCAK256 0xA6 PUSH11 0xBFF62E2E040E1B3839A30D RETURNDATACOPY 0xD7 0xA8 DUP13 0xEC 0xC5 0x21 0xCC SDIV SHR SLT SWAP8 SWAP6 PUSH31 0xFF5FEC345064736F6C63430008110033000000000000000000000000000000 "},"methodIdentifiers":{"DeleteTweet(uint256)":"9c0cce8d","EditTweet(uint256,string)":"171abca5","GetTweetEdited(uint256)":"c5ddac73","GetTweetLength()":"bc820c10","GetTweetMessage(uint256)":"e749e022","GetTweetOwner(uint256)":"d901cbe3","GetTweetTime(uint256)":"b9c19726","GetTweetVisibility(uint256)":"0bbffe24","GetTweets()":"f1dcd93f","PostTweet(string,uint32)":"735c514a","owner()":"8da5cb5b","renounceOwnership()":"715018a6","transferOwnership(address)":"f2fde38b"}}}}}