{
  "_format": "hh-sol-artifact-1",
  "contractName": "Tweet",
  "sourceName": "contracts/Tweet.sol",
  "abi": [
    {
      "anonymous": false,
      "inputs": [
        {
          "indexed": false,
          "internalType": "uint256",
          "name": "tweetId",
          "type": "uint256"
        }
      ],
      "name": "DeleteTweetEvent",
      "type": "event"
    },
    {
      "anonymous": false,
      "inputs": [
        {
          "indexed": false,
          "internalType": "string",
          "name": "tweetMessage",
          "type": "string"
        },
        {
          "indexed": false,
          "internalType": "uint256",
          "name": "tweetId",
          "type": "uint256"
        }
      ],
      "name": "EditTweetEvent",
      "type": "event"
    },
    {
      "anonymous": false,
      "inputs": [
        {
          "indexed": false,
          "internalType": "string",
          "name": "tweetMessage",
          "type": "string"
        },
        {
          "indexed": false,
          "internalType": "address",
          "name": "tweetOwner",
          "type": "address"
        },
        {
          "indexed": false,
          "internalType": "uint256",
          "name": "tweetTime",
          "type": "uint256"
        },
        {
          "indexed": false,
          "internalType": "uint256",
          "name": "tweetId",
          "type": "uint256"
        }
      ],
      "name": "NewTweetEvent",
      "type": "event"
    },
    {
      "anonymous": false,
      "inputs": [
        {
          "indexed": true,
          "internalType": "address",
          "name": "previousOwner",
          "type": "address"
        },
        {
          "indexed": true,
          "internalType": "address",
          "name": "newOwner",
          "type": "address"
        }
      ],
      "name": "OwnershipTransferred",
      "type": "event"
    },
    {
      "inputs": [
        {
          "internalType": "uint256",
          "name": "id",
          "type": "uint256"
        }
      ],
      "name": "DeleteTweet",
      "outputs": [],
      "stateMutability": "nonpayable",
      "type": "function"
    },
    {
      "inputs": [
        {
          "internalType": "uint256",
          "name": "id",
          "type": "uint256"
        },
        {
          "internalType": "string",
          "name": "newMessage",
          "type": "string"
        }
      ],
      "name": "EditTweet",
      "outputs": [],
      "stateMutability": "nonpayable",
      "type": "function"
    },
    {
      "inputs": [
        {
          "internalType": "uint256",
          "name": "id",
          "type": "uint256"
        }
      ],
      "name": "GetTweetEdited",
      "outputs": [
        {
          "internalType": "bool",
          "name": "",
          "type": "bool"
        }
      ],
      "stateMutability": "view",
      "type": "function"
    },
    {
      "inputs": [],
      "name": "GetTweetLength",
      "outputs": [
        {
          "internalType": "uint256",
          "name": "",
          "type": "uint256"
        }
      ],
      "stateMutability": "view",
      "type": "function"
    },
    {
      "inputs": [
        {
          "internalType": "uint256",
          "name": "id",
          "type": "uint256"
        }
      ],
      "name": "GetTweetMessage",
      "outputs": [
        {
          "internalType": "string",
          "name": "",
          "type": "string"
        }
      ],
      "stateMutability": "view",
      "type": "function"
    },
    {
      "inputs": [
        {
          "internalType": "uint256",
          "name": "id",
          "type": "uint256"
        }
      ],
      "name": "GetTweetOwner",
      "outputs": [
        {
          "internalType": "address",
          "name": "",
          "type": "address"
        }
      ],
      "stateMutability": "view",
      "type": "function"
    },
    {
      "inputs": [
        {
          "internalType": "uint256",
          "name": "id",
          "type": "uint256"
        }
      ],
      "name": "GetTweetTime",
      "outputs": [
        {
          "internalType": "uint256",
          "name": "",
          "type": "uint256"
        }
      ],
      "stateMutability": "view",
      "type": "function"
    },
    {
      "inputs": [
        {
          "internalType": "uint256",
          "name": "id",
          "type": "uint256"
        }
      ],
      "name": "GetTweetVisibility",
      "outputs": [
        {
          "internalType": "bool",
          "name": "",
          "type": "bool"
        }
      ],
      "stateMutability": "view",
      "type": "function"
    },
    {
      "inputs": [],
      "name": "GetTweets",
      "outputs": [
        {
          "components": [
            {
              "internalType": "string",
              "name": "TweetMessage",
              "type": "string"
            },
            {
              "internalType": "address",
              "name": "TweetOwner",
              "type": "address"
            },
            {
              "internalType": "uint32",
              "name": "TweetTime",
              "type": "uint32"
            },
            {
              "internalType": "bool",
              "name": "visibility",
              "type": "bool"
            },
            {
              "internalType": "bool",
              "name": "edited",
              "type": "bool"
            }
          ],
          "internalType": "struct Tweet.TweetStruct[]",
          "name": "",
          "type": "tuple[]"
        }
      ],
      "stateMutability": "view",
      "type": "function"
    },
    {
      "inputs": [
        {
          "internalType": "string",
          "name": "message",
          "type": "string"
        },
        {
          "internalType": "uint32",
          "name": "time",
          "type": "uint32"
        }
      ],
      "name": "PostTweet",
      "outputs": [],
      "stateMutability": "nonpayable",
      "type": "function"
    },
    {
      "inputs": [],
      "name": "owner",
      "outputs": [
        {
          "internalType": "address",
          "name": "",
          "type": "address"
        }
      ],
      "stateMutability": "view",
      "type": "function"
    },
    {
      "inputs": [],
      "name": "renounceOwnership",
      "outputs": [],
      "stateMutability": "nonpayable",
      "type": "function"
    },
    {
      "inputs": [
        {
          "internalType": "address",
          "name": "newOwner",
          "type": "address"
        }
      ],
      "name": "transferOwnership",
      "outputs": [],
      "stateMutability": "nonpayable",
      "type": "function"
    }
  ],
  "bytecode": "0x608060405234801561001057600080fd5b506100203361002560201b60201c565b6100e9565b60008060009054906101000a900473ffffffffffffffffffffffffffffffffffffffff169050816000806101000a81548173ffffffffffffffffffffffffffffffffffffffff021916908373ffffffffffffffffffffffffffffffffffffffff1602179055508173ffffffffffffffffffffffffffffffffffffffff168173ffffffffffffffffffffffffffffffffffffffff167f8be0079c531659141344cd1fd0a4f28419497f9722a3daafe3b4186f6b6457e060405160405180910390a35050565b611ab9806100f86000396000f3fe608060405234801561001057600080fd5b50600436106100cf5760003560e01c8063b9c197261161008c578063d901cbe311610066578063d901cbe3146101fe578063e749e0221461022e578063f1dcd93f1461025e578063f2fde38b1461027c576100cf565b8063b9c1972614610180578063bc820c10146101b0578063c5ddac73146101ce576100cf565b80630bbffe24146100d4578063171abca514610104578063715018a614610120578063735c514a1461012a5780638da5cb5b146101465780639c0cce8d14610164575b600080fd5b6100ee60048036038101906100e99190610e14565b610298565b6040516100fb9190610e5c565b60405180910390f35b61011e60048036038101906101199190610fbd565b6102d4565b005b610128610505565b005b610144600480360381019061013f9190611055565b610519565b005b61014e610781565b60405161015b91906110f2565b60405180910390f35b61017e60048036038101906101799190610e14565b6107aa565b005b61019a60048036038101906101959190610e14565b6108d5565b6040516101a7919061111c565b60405180910390f35b6101b861091a565b6040516101c5919061111c565b60405180910390f35b6101e860048036038101906101e39190610e14565b610927565b6040516101f59190610e5c565b60405180910390f35b61021860048036038101906102139190610e14565b610963565b60405161022591906110f2565b60405180910390f35b61024860048036038101906102439190610e14565b6109b2565b60405161025591906111b6565b60405180910390f35b610266610a69565b6040516102739190611387565b60405180910390f35b610296600480360381019061029191906113d5565b610c0c565b005b6000600182815481106102ae576102ad611402565b5b906000526020600020906002020160010160189054906101000a900460ff169050919050565b600182815481106102e8576102e7611402565b5b906000526020600020906002020160010160009054906101000a900473ffffffffffffffffffffffffffffffffffffffff1673ffffffffffffffffffffffffffffffffffffffff163373ffffffffffffffffffffffffffffffffffffffff1614610387576040517f08c379a000000000000000000000000000000000000000000000000000000000815260040161037e9061147d565b60405180910390fd5b604051602001610396906114ce565b60405160208183030381529060405280519060200120816040516020016103bd9190611514565b6040516020818303038152906040528051906020012003610413576040517f08c379a000000000000000000000000000000000000000000000000000000000815260040161040a90611577565b60405180910390fd5b608c81511115610458576040517f08c379a000000000000000000000000000000000000000000000000000000000815260040161044f906115e3565b60405180910390fd5b806001838154811061046d5761046c611402565b5b9060005260206000209060020201600001908161048a919061180f565b5060018083815481106104a05761049f611402565b5b906000526020600020906002020160010160196101000a81548160ff0219169083151502179055507fb749870735375200743139840be8c8cdb105748a51d782f8373b033d04431fd381836040516104f99291906118e1565b60405180910390a15050565b61050d610c8f565b6105176000610d06565b565b604051602001610528906114ce565b604051602081830303815290604052805190602001208260405160200161054f9190611514565b60405160208183030381529060405280519060200120036105a5576040517f08c379a000000000000000000000000000000000000000000000000000000000815260040161059c90611577565b60405180910390fd5b608c825111156105ea576040517f08c379a00000000000000000000000000000000000000000000000000000000081526004016105e1906115e3565b60405180910390fd5b600033905060016040518060a001604052808581526020018373ffffffffffffffffffffffffffffffffffffffff1681526020018463ffffffff1681526020016001151581526020016000151581525090806001815401808255809150506001900390600052602060002090600202016000909190919091506000820151816000019081610678919061180f565b5060208201518160010160006101000a81548173ffffffffffffffffffffffffffffffffffffffff021916908373ffffffffffffffffffffffffffffffffffffffff16021790555060408201518160010160146101000a81548163ffffffff021916908363ffffffff16021790555060608201518160010160186101000a81548160ff02191690831515021790555060808201518160010160196101000a81548160ff021916908315150217905550505060006001808054905061073c9190611940565b90507fe636b805e315e6c223e32c1c45c96245de752bcc849619c1e3012449df54ece08483858460405161077394939291906119a5565b60405180910390a150505050565b60008060009054906101000a900473ffffffffffffffffffffffffffffffffffffffff16905090565b600181815481106107be576107bd611402565b5b906000526020600020906002020160010160009054906101000a900473ffffffffffffffffffffffffffffffffffffffff1673ffffffffffffffffffffffffffffffffffffffff163373ffffffffffffffffffffffffffffffffffffffff161461085d576040517f08c379a00000000000000000000000000000000000000000000000000000000081526004016108549061147d565b60405180910390fd5b60006001828154811061087357610872611402565b5b906000526020600020906002020160010160186101000a81548160ff0219169083151502179055507f805cd43a167357339f81950be6c6b1dc85ab6b73e8b942d73d6bc0d63a85cf98816040516108ca919061111c565b60405180910390a150565b6000600182815481106108eb576108ea611402565b5b906000526020600020906002020160010160149054906101000a900463ffffffff1663ffffffff169050919050565b6000600180549050905090565b60006001828154811061093d5761093c611402565b5b906000526020600020906002020160010160199054906101000a900460ff169050919050565b60006001828154811061097957610978611402565b5b906000526020600020906002020160010160009054906101000a900473ffffffffffffffffffffffffffffffffffffffff169050919050565b6060600182815481106109c8576109c7611402565b5b906000526020600020906002020160000180546109e490611632565b80601f0160208091040260200160405190810160405280929190818152602001828054610a1090611632565b8015610a5d5780601f10610a3257610100808354040283529160200191610a5d565b820191906000526020600020905b815481529060010190602001808311610a4057829003601f168201915b50505050509050919050565b60606001805480602002602001604051908101604052809291908181526020016000905b82821015610c0357838290600052602060002090600202016040518060a0016040529081600082018054610ac090611632565b80601f0160208091040260200160405190810160405280929190818152602001828054610aec90611632565b8015610b395780601f10610b0e57610100808354040283529160200191610b39565b820191906000526020600020905b815481529060010190602001808311610b1c57829003601f168201915b505050505081526020016001820160009054906101000a900473ffffffffffffffffffffffffffffffffffffffff1673ffffffffffffffffffffffffffffffffffffffff1673ffffffffffffffffffffffffffffffffffffffff1681526020016001820160149054906101000a900463ffffffff1663ffffffff1663ffffffff1681526020016001820160189054906101000a900460ff161515151581526020016001820160199054906101000a900460ff16151515158152505081526020019060010190610a8d565b50505050905090565b610c14610c8f565b600073ffffffffffffffffffffffffffffffffffffffff168173ffffffffffffffffffffffffffffffffffffffff1603610c83576040517f08c379a0000000000000000000000000000000000000000000000000000000008152600401610c7a90611a63565b60405180910390fd5b610c8c81610d06565b50565b3373ffffffffffffffffffffffffffffffffffffffff16610cae610781565b73ffffffffffffffffffffffffffffffffffffffff1614610d04576040517f08c379a0000000000000000000000000000000000000000000000000000000008152600401610cfb9061147d565b60405180910390fd5b565b60008060009054906101000a900473ffffffffffffffffffffffffffffffffffffffff169050816000806101000a81548173ffffffffffffffffffffffffffffffffffffffff021916908373ffffffffffffffffffffffffffffffffffffffff1602179055508173ffffffffffffffffffffffffffffffffffffffff168173ffffffffffffffffffffffffffffffffffffffff167f8be0079c531659141344cd1fd0a4f28419497f9722a3daafe3b4186f6b6457e060405160405180910390a35050565b6000604051905090565b600080fd5b600080fd5b6000819050919050565b610df181610dde565b8114610dfc57600080fd5b50565b600081359050610e0e81610de8565b92915050565b600060208284031215610e2a57610e29610dd4565b5b6000610e3884828501610dff565b91505092915050565b60008115159050919050565b610e5681610e41565b82525050565b6000602082019050610e716000830184610e4d565b92915050565b600080fd5b600080fd5b6000601f19601f8301169050919050565b7f4e487b7100000000000000000000000000000000000000000000000000000000600052604160045260246000fd5b610eca82610e81565b810181811067ffffffffffffffff82111715610ee957610ee8610e92565b5b80604052505050565b6000610efc610dca565b9050610f088282610ec1565b919050565b600067ffffffffffffffff821115610f2857610f27610e92565b5b610f3182610e81565b9050602081019050919050565b82818337600083830152505050565b6000610f60610f5b84610f0d565b610ef2565b905082815260208101848484011115610f7c57610f7b610e7c565b5b610f87848285610f3e565b509392505050565b600082601f830112610fa457610fa3610e77565b5b8135610fb4848260208601610f4d565b91505092915050565b60008060408385031215610fd457610fd3610dd4565b5b6000610fe285828601610dff565b925050602083013567ffffffffffffffff81111561100357611002610dd9565b5b61100f85828601610f8f565b9150509250929050565b600063ffffffff82169050919050565b61103281611019565b811461103d57600080fd5b50565b60008135905061104f81611029565b92915050565b6000806040838503121561106c5761106b610dd4565b5b600083013567ffffffffffffffff81111561108a57611089610dd9565b5b61109685828601610f8f565b92505060206110a785828601611040565b9150509250929050565b600073ffffffffffffffffffffffffffffffffffffffff82169050919050565b60006110dc826110b1565b9050919050565b6110ec816110d1565b82525050565b600060208201905061110760008301846110e3565b92915050565b61111681610dde565b82525050565b6000602082019050611131600083018461110d565b92915050565b600081519050919050565b600082825260208201905092915050565b60005b83811015611171578082015181840152602081019050611156565b60008484015250505050565b600061118882611137565b6111928185611142565b93506111a2818560208601611153565b6111ab81610e81565b840191505092915050565b600060208201905081810360008301526111d0818461117d565b905092915050565b600081519050919050565b600082825260208201905092915050565b6000819050602082019050919050565b600082825260208201905092915050565b600061122082611137565b61122a8185611204565b935061123a818560208601611153565b61124381610e81565b840191505092915050565b611257816110d1565b82525050565b61126681611019565b82525050565b61127581610e41565b82525050565b600060a08301600083015184820360008601526112988282611215565b91505060208301516112ad602086018261124e565b5060408301516112c0604086018261125d565b5060608301516112d3606086018261126c565b5060808301516112e6608086018261126c565b508091505092915050565b60006112fd838361127b565b905092915050565b6000602082019050919050565b600061131d826111d8565b61132781856111e3565b935083602082028501611339856111f4565b8060005b85811015611375578484038952815161135685826112f1565b945061136183611305565b925060208a0199505060018101905061133d565b50829750879550505050505092915050565b600060208201905081810360008301526113a18184611312565b905092915050565b6113b2816110d1565b81146113bd57600080fd5b50565b6000813590506113cf816113a9565b92915050565b6000602082840312156113eb576113ea610dd4565b5b60006113f9848285016113c0565b91505092915050565b7f4e487b7100000000000000000000000000000000000000000000000000000000600052603260045260246000fd5b7f4f776e61626c653a2063616c6c6572206973206e6f7420746865206f776e6572600082015250565b6000611467602083611142565b915061147282611431565b602082019050919050565b600060208201905081810360008301526114968161145a565b9050919050565b600081905092915050565b50565b60006114b860008361149d565b91506114c3826114a8565b600082019050919050565b60006114d9826114ab565b9150819050919050565b60006114ee82611137565b6114f8818561149d565b9350611508818560208601611153565b80840191505092915050565b600061152082846114e3565b915081905092915050565b7f54776565742063616e6e6f7420626520656d7074792e00000000000000000000600082015250565b6000611561601683611142565b915061156c8261152b565b602082019050919050565b6000602082019050818103600083015261159081611554565b9050919050565b7f547765657420697320746f6f206c6f6e672e0000000000000000000000000000600082015250565b60006115cd601283611142565b91506115d882611597565b602082019050919050565b600060208201905081810360008301526115fc816115c0565b9050919050565b7f4e487b7100000000000000000000000000000000000000000000000000000000600052602260045260246000fd5b6000600282049050600182168061164a57607f821691505b60208210810361165d5761165c611603565b5b50919050565b60008190508160005260206000209050919050565b60006020601f8301049050919050565b600082821b905092915050565b6000600883026116c57fffffffffffffffffffffffffffffffffffffffffffffffffffffffffffffffff82611688565b6116cf8683611688565b95508019841693508086168417925050509392505050565b6000819050919050565b600061170c61170761170284610dde565b6116e7565b610dde565b9050919050565b6000819050919050565b611726836116f1565b61173a61173282611713565b848454611695565b825550505050565b600090565b61174f611742565b61175a81848461171d565b505050565b5b8181101561177e57611773600082611747565b600181019050611760565b5050565b601f8211156117c35761179481611663565b61179d84611678565b810160208510156117ac578190505b6117c06117b885611678565b83018261175f565b50505b505050565b600082821c905092915050565b60006117e6600019846008026117c8565b1980831691505092915050565b60006117ff83836117d5565b9150826002028217905092915050565b61181882611137565b67ffffffffffffffff81111561183157611830610e92565b5b61183b8254611632565b611846828285611782565b600060209050601f8311600181146118795760008415611867578287015190505b61187185826117f3565b8655506118d9565b601f19841661188786611663565b60005b828110156118af5784890151825560018201915060208501945060208101905061188a565b868310156118cc57848901516118c8601f8916826117d5565b8355505b6001600288020188555050505b505050505050565b600060408201905081810360008301526118fb818561117d565b905061190a602083018461110d565b9392505050565b7f4e487b7100000000000000000000000000000000000000000000000000000000600052601160045260246000fd5b600061194b82610dde565b915061195683610dde565b925082820390508181111561196e5761196d611911565b5b92915050565b600061198f61198a61198584611019565b6116e7565b610dde565b9050919050565b61199f81611974565b82525050565b600060808201905081810360008301526119bf818761117d565b90506119ce60208301866110e3565b6119db6040830185611996565b6119e8606083018461110d565b95945050505050565b7f4f776e61626c653a206e6577206f776e657220697320746865207a65726f206160008201527f6464726573730000000000000000000000000000000000000000000000000000602082015250565b6000611a4d602683611142565b9150611a58826119f1565b604082019050919050565b60006020820190508181036000830152611a7c81611a40565b905091905056fea2646970667358221220a66abff62e2e040e1b3839a30d3ed7a88cecc521cc051c1297957eff5fec345064736f6c63430008110033",
  "linkReferences": {},
  "deployedLinkReferences": {}
}